:020000040800F2
:1000000040FA0020450100084D0100084F0100089A
:1000100051010008530100085501000800000000CC
:100020000000000000000000000000005701000870
:1000300059010008000000005B0100085D01000894
:100040005F0100085F0100085F0100085F01000810
:100050005F0100085F0100085F0100085F01000800
:100060005F0100085F0100085F010008CD03000880
:10007000ED0300080D0400082D0400084D040008DD
:100080006D0400088D0400085F0100085F0100088E
:100090005F0100085F0100085F0100085F010008C0
:1000A0005F0100085F0100085F0100085F010008B0
:1000B0005F0100085F0100085F0100085F010008A0
:1000C0005F0100085F0100085F0100085F01000890
:1000D0005F0100085F0100085F0100085F01000880
:1000E0005F0100085F0100085F0100085F01000870
:1000F0005F0100085F0100085F0100085F01000860
:100100005F0100085F0100085F0100085F0100084F
:100110005F0100085F0100085F0100085F0100083F
:10012000AD040008CD040008F10400081105000822
:10013000DFF80CD000F018F900480047D12400087F
:1001400040FA00200648804706480047FEE7FEE7E1
:10015000FEE7FEE7FEE7FEE7FEE7FEE7FEE7FEE777
:10016000A10A0008310100082DE9F0410024061B16
:10017000254671F1000605DA01240027D0EB0700BF
:1001800067EB0101161E73F1000605DA0027D2EBBA
:100190000702012567EB030300F0B5F886460E461B
:1001A00017469C46AC4204D00025D0EB050E65EB0B
:1001B000010624B10020D2EB000760EB030C70466F
:1001C00031463A466346BDE8F081202A06DBCB176C
:1001D000203A41FA02F043EAE07306E041FA02F302
:1001E000D040C2F1200291400843194670472DE9E2
:1001F000FE43994615468846074601AC022942D37C
:10020000002D40D000200290A8F101004FF0FF36F1
:10021000009022E000FB057201FB057011464A4682
:100220009047002805DC54F82600304444F82600A6
:1002300013E060682A4600FB057154F8040C00FBCB
:10024000057007E00B7890F800C001F801CB00F8CA
:10025000013B521E002AF5D1764254F8040C616825
:100260008842D7DC4B462A463846FFF7C0FF54F891
:10027000040C4B46A8EB0001401C00FB05702A460D
:10028000491EFFF7B4FFBDE8FE8310B5431A934241
:1002900009D28318881803E010F8011D03F8011D26
:1002A000521EF9D210BD40EA01039B0703D009E0BA
:1002B00008C9121F08C0042AFAD203E011F8013B52
:1002C00000F8013B521EF9D210BD421C10F8011B70
:1002D0000029FBD1801A7047CBB203E00178994224
:1002E00003D0401C521EF9D20020704730B504469E
:1002F0000020034600E05B1C934203D2E05CCD5C2F
:10030000401BF8D030BD2DE9F05F05460020924635
:100310009B4688460646814640241BE028464146C7
:100320004746224600F041F853465A46C01A9141CA
:1003300010D311461846224600F028F82D1A67EB14
:1003400001084F4622460120002100F01FF817EB5C
:1003500000094E41201EA4F10104DFDC484631466D
:100360002A464346BDE8F09F064C074D06E0E0688C
:1003700040F0010394E8070098471034AC42F6D3EC
:10038000FFF7DAFE84C20108A4C20108202A04DBB8
:10039000203A00FA02F1002070479140C2F1200398
:1003A00020FA03F3194390407047202A04DB203AD7
:1003B00021FA02F00021704721FA02F3D040C2F185
:1003C00020029140084319467047704710B5054810
:1003D000006800F00F04034844602046FFF7F5FF73
:1003E00010BD0000000002407047000010B5054835
:1003F0000068C0F303142001024948602046FFF75B
:10040000F3FF10BD000002407047000010B5054822
:100410000068C0F303242002024948602046FFF729
:10042000F3FF10BD000002407047000010B5054802
:100430000068C0F303342003024948602046FFF7F8
:10044000F3FF10BD000002407047000010B50548E2
:100450000068C0F303442004024948602046FFF7C7
:10046000F3FF10BD000002407047000010B50548C2
:100470000068C0F303542005024948602046FFF796
:10048000F3FF10BD000002407047000010B50548A2
:100490000068C0F303642006024948602046FFF765
:1004A000F3FF10BD000002407047000010B5054882
:1004B000006800F00F040348001D04602046FFF7A9
:1004C000F3FF10BD000402407047000010B506485D
:1004D0000068C0F3031420010349091D0860204689
:1004E000FFF7F2FF10BD000000040240704700005B
:1004F00010B506480068C0F3032420020349091D13
:1005000008602046FFF7F2FF10BD00000004024023
:1005100010B50C480068C0F3033434B12003094916
:10052000091D0860204600F00FF806480068C0F377
:10053000034434B120040349091D0860204600F03B
:1005400004F810BD000402407047704751B18200AA
:10055000A2F1C042126842F001038200A2F1C0423F
:10056000136009E08200A2F1C0421268034B1A40F6
:100570008300A3F1C0431A6070470000FEFF0F0024
:10058000D0E901121143C268114302691143426963
:10059000114382691143C2691143026A1143426ADD
:1005A0001143826A1143C26A1143026B114302680C
:1005B0009200A2F1C0421160816808290BD1016844
:1005C0008900A1F1C041096841F040020168890039
:1005D000A1F1C0410A60416B0968426B526841EA6F
:1005E0000211426B926841EA0221426B928941EA10
:1005F0000241426B128A41EA0251426B127D41EA8A
:100600000261426B926911430268521C9200A2F18E
:10061000C0421160C16AB1F5804F1BD1816B09687E
:10062000826B526841EA0211826B926841EA0221B0
:10063000826B128A41EA0251826B127D41EA0261A9
:10064000826B9269114302689200A2F1C042C2F823
:10065000041107E06FF0704201688900A1F1C04108
:10066000C1F804217047000000B597B001214FF494
:10067000F07000F013F90121080200F0FFF80320E8
:100680008DF85A004FF48060ADF8580018208DF8AE
:100690005B0016A92D4800F061F80320ADF8580062
:1006A00016A92B4800F05AF83020ADF8580016A9CA
:1006B000284800F053F84FF60370ADF8580016A91B
:1006C000244800F04BF84FF68070ADF8580016A99A
:1006D0001F4800F043F84FF23F00ADF8580016A94C
:1006E0001D4800F03BF83F20ADF8580016A9174808
:1006F00000F034F8002000900190082002900020C3
:100700000390049005900690042007900020089024
:10071000099010200A9000200B900D900C900E90E4
:100720000F904FF480501090002011901290139071
:10073000CDF850D0CDF854D007A8FFF721FF012104
:100740000420FFF703FF17B000BD000000200140A8
:100750000018014000140140001C01402DE9F04147
:10076000024600250026002000230024002791F8DF
:1007700003C00CF00F0591F803C00CF0100CBCF195
:10078000000F03D091F802C04CEA050591F800C0B3
:10079000BCF1000F31D0146800202BE04FF0010CA9
:1007A0000CFA00F3B1F800C00CEA03069E4220D117
:1007B00083004FF00F0C0CFA03F7BC4305FA03FC5F
:1007C0004CEA040491F803C0BCF1280F06D14FF0A5
:1007D000010C0CFA00FCC2F814C00AE091F803C046
:1007E000BCF1480F05D14FF0010C0CFA00FCC2F827
:1007F00010C0401C0828D1D31460B1F800C0BCF16F
:10080000FF0F34DD546800202EE000F1080C4FF09B
:10081000010808FA0CF3B1F800C00CEA03069E4286
:1008200021D183004FF00F0C0CFA03F7BC4305FAFB
:1008300003FC4CEA040491F803C0BCF1280F05D175
:1008400000F1080C08FA0CF8C2F8148091F803C003
:10085000BCF1480F07D100F1080C4FF0010808FA6D
:100860000CF8C2F81080401C0828CED35460BDE8B4
:10087000F0814161704701617047000029B1064A6B
:1008800052690243044B5A6104E0034A52698243AD
:10089000014B5A61704700000010024029B1064A1E
:1008A00092690243044B9A6104E0034A92698243CD
:1008B000014B9A61704700000010024030B50021E2
:1008C0000022002400232D4D6D6805F00C0121B19C
:1008D000042905D0082923D105E0294D056022E02F
:1008E000274D05601FE0254D6D6805F47012234DFE
:1008F0006D6805F48034022505EB92421CB9214D48
:10090000554305600BE01D4D6D6805F400351DB1C4
:100910001C4D5543056002E0194D5543056002E04A
:10092000174D056000BF00BF144D6D6805F0F00164
:100930000909154D6B5C0568DD4045600F4D6D681C
:1009400005F4E061090A104D6B5C4568DD40856087
:100950000A4D6D6805F46051C90A0B4D6B5C456822
:10096000DD40C560054D6D6805F44041890B074DBC
:100970006B5CC568B5FBF3F5056130BD0010024046
:1009800000127A0000093D00580000206800002095
:1009900010B500F001F810BD0CB5002001900090DA
:1009A0003348006840F480303149086000BF304867
:1009B000006800F4003000900198401C01900098FD
:1009C00018B90198B0F5A06FF1D12948006800F47A
:1009D000003010B10120009001E00020009000984C
:1009E000012843D12348006840F0100021490860E5
:1009F0000846006820F0030008600846006840F0E0
:100A0000020008601A484068194948600846406872
:100A100048600846406840F4806048600846406886
:100A200020F47C1048600846406840F4E8104860B4
:100A30000846006840F08070086000BF0C480068FD
:100A400000F000700028F9D00948406820F0030049
:100A5000074948600846406840F00200486000BF0F
:100A60000348406800F00C000828F9D10CBD0000D4
:100A70000010024000200240042808D14FF0E0217D
:100A8000096941F004014FF0E022116107E04FF0E5
:100A9000E021096921F004014FF0E0221161704763
:100AA00010B51348006840F001001149086008467D
:100AB0004068104908400E494860084600680E49E1
:100AC00008400B4908600846006820F48020086050
:100AD0000846406820F4FE0048604FF41F0088601C
:100AE000FFF756FF4FF000600449086010BD00009A
:100AF000001002400000FFF8FFFFF6FE08ED00E0E6
:100B000021B1828942F40052828104E082894DF64B
:100B1000FF731A408281704700B585B0012144F20D
:100B20000400FFF7BBFE4FF4E13001900020ADF868
:100B300010000C20ADF80E000020ADF80C00ADF850
:100B40000A00ADF8080001A9104800F023F84FF49E
:100B50000070ADF8000003208DF8020018208DF819
:100B6000030069460A48FFF7F9FD4FF48060ADF8CD
:100B7000000004208DF8030069460548FFF7EEFDEC
:100B800001210248FFF7BCFF05B000BD003801405D
:100B9000000801402DE9F04786B005460E460024C6
:100BA000A24600BFA1460027B08900B100BF2F4672
:100BB0002C8A4CF6FF700440F08804432C82AC89E8
:100BC0004EF6F3100440B088318908437189084318
:100BD0000443AC81AC8A4FF6FF400440B089044323
:100BE000AC8201A8FFF76AFE1F48874202D1DDF8F8
:100BF00010A001E0DDF80CA0A88900F4004040B18D
:100C00000AEBCA0000EB0A1031684900B0FBF1F8AA
:100C100007E00AEBCA0000EB0A1031688900B0FB5C
:100C2000F1F86420B8FBF0F004012009642101FB15
:100C30001089A88900F4004040B1322000EBC900BF
:100C4000B0FBF1F000F00700044308E0322000EBB5
:100C500009106421B0FBF1F000F00F0004432C8177
:100C600006B0BDE8F0870000003801402DE9FC5FC8
:100C700004460D46DFF8E4904FF0000A0AF0A0F8B1
:100C8000824601230022114650460AF053F90AF029
:100C900049F8834632A0016858460AF094F92A467A
:100CA000214658460AF091F904FB05F22E4B4946BD
:100CB00058460AF07AF9594650460AF089F90190E7
:100CC0002AA0019900F0CEF858460AF044F8804670
:100CD00028E040460AF0CAFC009040460AF0C3FCF7
:100CE0000646009809F0B8FF07463246394622A06A
:100CF00000F0B8F83046FFF7E8FA0746394625A075
:100D000000F0B0F8002704E0F15D25A000F0AAF89B
:100D10007F1C3046FFF7D9FAB842F5D840460AF0B2
:100D2000A8FC8046B8F1000FD3D1012001F0A8FC47
:100D3000064631461BA000F095F8002001F0A0FC0B
:100D4000064631461CA000F08DF8584609F0FBFF1E
:100D500050460AF07BF80020BDE8FC9F84B70008ED
:100D6000593830300000000069AD00086E203D2089
:100D700025640D0A000000000D0A6465636F646558
:100D8000642025732073796D626F6C202225732295
:100D90000D0A00006C656E203D2025640D0A0000E0
:100DA000255820005352414D455820555345524433
:100DB000203A2025640A00005352414D494E5553B4
:100DC000455244203A2025640A00000070B50446CC
:100DD0000D4604FB05F1012001F084FC06462EB10E
:100DE00004FB05F20021304601F09DFC304670BD49
:100DF00010B504462146012001F062FC10BD10B57B
:100E000004462146012001F06DFC10BD70B504467A
:100E10000D46164632462946204601F077FC70BD45
:100E200070B504460D46164632462946204601F066
:100E30007AFC70BD70B504460D462A462146012055
:100E400001F07CFC70BD00000FB4024610B504A98F
:100E5000034B039800F026F810BC5DF814FB00006B
:100E6000591F00080FB4054B10B503A9044A029896
:100E700000F018F810BC5DF814FB0000591F0008C2
:100E80007000002002E008C8121F08C1002AFAD131
:100E900070477047002001E001C1121F002AFBD1FA
:100EA000704700002DE9FF4F8DB00F460546002624
:100EB00006E025280BD0DDE90F1290476D1C761C4B
:100EC00028780028F5D111B03046BDE8F08F002415
:100ED000A246A1460122EC4900E0044315F8013F77
:100EE000203B02FA03F00842F7D128782A2810D0D4
:100EF0006FF02F022878A0F13001092914D80AEBED
:100F00008A0102EB410144F0020400EB010A6D1C6E
:100F1000F0E701CF5FEA000A03D544F40054CAF1B8
:100F2000000A44F002046D1C28782E2817D115F809
:100F3000010F44F004042A280ED06FF02F02287805
:100F4000A0F1300109290AD809EB890102EB41011E
:100F500000EB01096D1CF2E757F8049B6D1C287823
:100F60006C280FD006DC4C2817D068280DD06A28D2
:100F700014D104E0742810D07A280FD10DE044F485
:100F800000140AE044F4801401E044F44014697849
:100F9000814202D104F580146D1C6D1C2A786E2AE2
:100FA0001FD00CDC632A31D004DC002A8BD0582AF5
:100FB00011D1A3E0642A68D0692A0CD165E0732AB4
:100FC0002ED004DC6F2A73D0702A04D19BE0752ADE
:100FD0006FD0782A6ED01046DDE90F129047761C4C
:100FE00050E1C4F30250022806D0032809D0042897
:100FF00001CF09D0066045E101CFF117C0E90061DA
:1010000040E101CF06803DE106703BE117F8040B9B
:101010008DF8000000208DF80100EB46012003E070
:1010200057F804BB4FF0FF3061074FF0000102D4C6
:101030000DE008F10101884649450FDA8045F8DBEB
:101040001BF808100029F4D108E008F101018846D6
:101050008142FADB1BF808100029F6D1DDE90F23E5
:10106000AAEB08008146214600F036F9304400EB37
:10107000080604E0DDE90F121BF8010B9047B8F1F8
:101080000108F7D221464846F7E00A21C4F302538B
:101090004FF0000B0891022B04D001CFC117032B96
:1010A00009D00AE0FF1D27F00707F7E8020108E072
:1010B00032E01FE020E000B2C117042B01D140B2A2
:1010C000C117031E71F1000307DA4FF0000CD0EBDB
:1010D0000C006CEB01012D2302E0230504D52B232A
:1010E0008DF82430012303E0E30701D02023F7E744
:1010F000984658E00A2110E010210EE010204FF031
:10110000000B08900CE010214FF0000B44F0040499
:101110004FF00809089103E008214FF0000B0891F7
:10112000C4F30253022B04D001CF0021032B06D0BD
:1011300006E0FF1D27F00707F7E8020103E080B291
:10114000042B00D1C0B24FF0000823072BD5702A22
:1011500007D0DDF820C08CF0100C5CEA0B0C05D039
:101160000EE040238DF82430012308E050EA01030B
:1011700006D030238DF824308DF8252002239846A0
:10118000DDF820C08CF0080C5CEA0B0C0BD150EAA7
:10119000010301D1630706D530238DF824304FF0C9
:1011A0000108A9F10109582A04D038A20B9208AA13
:1011B0000A920BE03AA2F9E75B46089AFFF7A3F818
:1011C0000B9B9B5C0A9A521E0A92137050EA010212
:1011D000F2D10A98ADEB000000F1200B600702D5B8
:1011E00024F4803401E04FF00109D94502DDA9EB78
:1011F0000B0000E0002000EB0B0141440890AAEB3B
:10120000010AE00306D4DDE90F232146504600F031
:1012100063F806444FF0000908E009A911F8090035
:10122000DDE90F12904709F10109761CC145F4DB95
:10123000E0030CD5DDE90F232146504600F04CF8C1
:10124000064404E0DDE90F1230209047761C08992F
:10125000481E08900029F5DC08E00A980A990078F1
:10126000491C0A91DDE90F129047761CBBF1000181
:10127000ABF1010BF1DC21465046DDE90F2300F014
:1012800019F806446D1C1BE6092801003031323381
:1012900034353637383961626364656600000000B2
:1012A000303132333435363738394142434445469C
:1012B000000000002DE9F041044600251E461746B7
:1012C000880404D405E039462020B0476D1C641E14
:1012D000F9D52846BDE8F0812DE9F0410446002506
:1012E0001E469046C80301D5302700E02027880419
:1012F00004D505E041463846B0476D1C641EF9D55B
:101300002846BDE8F081014601F1600070472DE9F3
:10131000F047064606F15C040621304600F02AFE3E
:101320002168081A20600121304600F023FE216860
:1013300008442060D4F8009000BF307800F001002D
:1013400010B9B9F1070F02D20020BDE8F0870121E2
:10135000304601F015FA82460722494600F0D8FCD3
:10136000054605B157E00221304601F009FA8246F0
:101370000722494600F0CCFC0546022D00D04AE089
:101380000321304601F0FCF982460722494600F06D
:10139000BFFC0546022D00D03DE00421304601F09F
:1013A000EFF982460722494600F0B2FC054605B136
:1013B00031E00021304600F0DDFD074601213046D6
:1013C00000F0D8FD804608F1010007EB5001616193
:1013D0000221304600F0CEFD07EB08010144E16038
:1013E0000321304600F0C6FDE16808446060616892
:1013F000A1600521304600F0BDFD80460421304645
:1014000000F0B8FD6168014408F1010001EB5001F2
:101410002161402099E7002097E710B50446206B32
:1014200030B14FF0FF31206B0AF029F90020206322
:101430002046FFF7DDFC10BD70B504460D4600BF29
:10144000E16929440846E16100BF58B9002D09DC73
:10145000A06910B12046A1698847206A10B92046CA
:10146000FFF7DBFF70BD2DE9F04180460C462146B9
:10147000404600F0D6FBD8F83050E06A08B9E8687A
:1014800018B9A8682062AC6004E0E868006A2062CD
:10149000E8680462E06A18B96868401C686002E0A5
:1014A000E86800B9EC6026460127394606F11C00C1
:1014B00000F0DBF920B9002F02DC304600F0E2F941
:1014C00000BFBDE8F0812DE9F04106468846174689
:1014D000002506E0690001208840B84200DB02E0F8
:1014E0006D1C042DF6DB00BF002411E006F1340072
:1014F00000EBC5004068041E09D006F1880050F8D2
:101500002500401C06F1880141F8250002E06D1E0F
:10151000002DEBDC00BF8CB106F1340000EBC50000
:10152000216A41600020206206F1340050F8350045
:10153000401E06F1340141F8350009E03421012054
:10154000FFF744FC0446D6F88400401CC6F884002B
:10155000A4F800800120206300206061E0627069CF
:10156000A062002F0FDD781EA0606068B84213D221
:10157000E06810B1E068FFF73BFC67603846FFF7B2
:101580003EFCE06008E0E06810B1E068FFF730FC86
:101590000020E0606060A0602046BDE8F0812DE999
:1015A000F04107460C464FF000084AE0D4F820808E
:1015B000E06948B14FF0FF3104F11C0000F055F92B
:1015C00010B1002020623BE0606810B90020E060AC
:1015D000A060606A98B14FF0FF31606A00F045F991
:1015E00000B100BF606A81683846FFF7D8FF00206D
:1015F000616A8860606A00F07BF900206062002503
:1016000007E06A00012090406168814200D202E058
:101610006D1C052DF5DB00BF052D06D1E068FFF739
:10162000E7FB0020E0606060002507F1340000EB7C
:10163000C5063068401C306070682062746000BF6E
:101640004446002CB2D1BDE8F08110B540F62831F7
:101650000120FFF7BBFB0446204607F0D5F92046E2
:1016600010BD00002DE9F04389B0044688461546B8
:101670004FF0000900200890079040F61430005900
:10168000092803DBD4F8200B092803DA002009B06D
:10169000BDE8F08300200346224608A9009007A871
:1016A00002F02AFE064600BF2C4800680E280BDB1D
:1016B000D4F8200BCDE9000640F614300359284A2F
:1016C00028A13048FFF7C0FB00BF3146079A002031
:1016D00000E0401C8842FCDB002009E002EB001720
:1016E000002300E05B1CD7F80CC09C45FADC401CD2
:1016F0008842F3DB00BF032E23DBD5E90112E86843
:1017000001F046FD074604A802F088F9D5E901106A
:101710003346CDE90071029004A92046079A07F0EC
:1017200080F90598002805DD2A46414604A801F005
:10173000EFFE814604A801F0D5FE3846FFF758FBBE
:1017400000BF079810B10798FFF752FB089810B137
:101750000898FFF74DFB484699E70000200000205D
:10176000441E010825733A202564782564206669A3
:101770006E646572732C2025642063656E746572D7
:10178000733A0A006C00002038B5044600BF1248C6
:10179000006801280ADBD4F8240B009040F61830CA
:1017A00003590E4A0EA11648FFF74EFB00BFD4F8AE
:1017B000100B18B1D4F8100BFFF71AFB40F61C30D1
:1017C000005920B140F61C310859FFF711FB2046A3
:1017D000FFF70EFB38BD000020000020D61D0108D9
:1017E00025733A206D61782066696E646572206C9D
:1017F000696E6573203D2025647825640A00000029
:101800006C0000202DE9F04105460E46174606EB18
:10181000460105F5316000EB8104D4E901018842FD
:101820000CDBA0684000A060A268521CA26002EB22
:10183000820291002068FFF7FDFA20606268511C67
:10184000616002EB8201226802EB810014223946BA
:10185000FFF7DCFA0020BDE8F081002240F61431E9
:101860000A504FF432610A507047024613680B4425
:10187000184613607047024613680B4418461360FD
:101880007047704710B50446606A30B14FF0FF31C1
:10189000606A09F0F4FE00206062A06910B1A069DE
:1018A000FFF7A6FA606820B1E06810B1E068FFF7C2
:1018B0009FFA2046FFF79CFA10BD70B505460C460E
:1018C000214605F11C00FFF7D6FF20B9002C02DCF1
:1018D0002846FFF7D7FF70BD10B510210120FFF794
:1018E00075FA044601212046FFF7C5FF204610BDCA
:1018F00070B50546AC6807E0266A00202062411EEC
:101900002046FFF7DAFF3446002CF5D10020A8600E
:101910002846FFF76DFA70BD2DE9FE4F0646894651
:101920004946684600F040F807460025012F07D1D8
:101930001B4900980A5628466D1C46F820202CE0CA
:10194000002F2ADD002420E0164810F81400144966
:1019500011F900804146009800F028FB04EB0801D3
:10196000104A515C80EA010A2146019800F01EFBF2
:101970008AEA000A02988AEA000ABAF1000F03D143
:1019800028466D1C46F82040641C0F2CDCDBBD4251
:1019900003DA4FF0FF30BDE8FE8F2846FBE700007A
:1019A000D61B0108B71B01082DE9F04705460C4678
:1019B000206828602168084600F006FB81464946F9
:1019C000206800F001FB616880EA01074846616811
:1019D00000F0FAFAA16880EA010827B139464046CA
:1019E00000F0D2FA00E0002068606968206800F02A
:1019F000EBFA7840A860032600E0761E002E04DD96
:101A0000701E55F820000028F7D03046BDE8F0875A
:101A100070B503460D460024002107E001208840F0
:101A2000284010B12048405C4440491C0F29F5DB98
:101A30001C600024002111E000220CE0052000FBC6
:101A400001260120B040284020B102EB4200164E92
:101A5000305C4440521C052AF0DB491C0329EBDBB7
:101A60005C600024002111E000220CE0032000FB58
:101A700001260120B040284020B102EB82000A4E2E
:101A8000305C4440521C032AF0DB491C0529EBDB87
:101A90009C60186818B9586808B9986808B101209E
:101AA00070BD0020FCE70000B71B0108F0B587B04F
:101AB00007463C68214604A8FFF7AAFF10B900209A
:101AC00007B0F0BD04A901A8FFF726FF0546002DC9
:101AD00012DD002606E001A810F82610012088403B
:101AE0004440761CAE42F6DBA00A00F008F8A042A3
:101AF00002D13C602846E3E74FF0FF30E0E70146C3
:101B000001F00100404240F237521040C1F3400260
:101B1000524240F66E231A405040C1F380025242B6
:101B200041F2EB131A405040C1F3C00252425B0035
:101B30001A405040C1F30012524244F29B231A4013
:101B4000504070472DE9F04105462F683C0B072CAB
:101B500014D3282C12D8E01F164A52F82010042261
:101B6000384603F0F4FD0646042E07DAE01F11495B
:101B700051F8200028603046BDE8F081002414E0D0
:101B8000E01DB0EB173F0FD00A4850F82410042294
:101B9000384603F0DCFD0646042E05DA054850F809
:101BA000240028603046E7E7641C222CE8D34FF07D
:101BB000FF30E1E7F01B01082DE9F04106460D4634
:101BC00006F1600426E020680088298888420CD14C
:101BD00020688068A968884207D1D5E90221236876
:101BE000D868FEF783FB00B917E0A86A2168896A04
:101BF000401AB0F57A6F0AD92068076A0020216878
:101C0000086230462168FFF7CAFC276002E02068BE
:101C100000F1200420680028D5D100BF2068BDE86D
:101C2000F0812DE9F04706460D46F06D00284BD0B7
:101C300029463046FFF7C0FF0446ACB9A868421CED
:101C400029883046FFF73FFC0446D5E90221E068C9
:101C5000FFF7DCF8A86AA0F5FA60A0626FF0020056
:101C6000E062306E20623466A86AA16A471AA86AE8
:101C7000A062B7F57A7F01D2012000E00020814602
:101C8000B7F5FA6F01D3012000E000208246E06A38
:101C9000012101EBE078B8F1000F02D1B9F1000F9A
:101CA00002D0BAF1000F03D06FF00200E06208E04A
:101CB000B8F1000F02D1B9F1000F02D0E06A401C68
:101CC000E062E06AE86201E00020E862BDE8F087D7
:101CD00030B501460A6A4868904201D2C86A08B91C
:101CE000486830BD8D68886AC0EB451402FB04F378
:101CF000C86AB3FBF0F3DB089A4205D9D21A4868E8
:101D0000904201D21046ECE7486808624868E8E76C
:101D100030B5034603FB02F0012505EB4000B0FBA4
:101D2000F1F0C01EC0F34704D01EA04201D8A81E87
:101D300030BD2046FCE770B504460D460021402D1D
:101D400002D104F1740101E0012070BD00BF09B1AE
:101D5000042A01DB0120F8E72BB901269640086828
:101D6000B043086009E0012B05D1012696400868C0
:101D70003043086001E00120E7E70020E5E70000CC
:101D80000146114A12884A434FF0E0235A6100226B
:101D90009A611A46126942F001021A6100BF4FF0BF
:101DA000E022106900F001021AB100F48032002A2A
:101DB000F5D04FF0E022126922F001024FF0E0234B
:101DC0001A6100229A6170470200002038B504466B
:101DD00000BF26480068012805DB254A25A12E48BA
:101DE000236FFFF731F800BF00BF204800680128CB
:101DF00007DBA06F00901E4A28A12748636FFFF7FA
:101E000023F800BF00BF19480068012808DBD4F898
:101E100080000090164A2FA11F48E36FFFF714F8C7
:101E200000BF00BF11480068012806DB104A37A137
:101E30001948D4F88430FFF707F800BF002511E0F7
:101E400000BF0A48006801280ADB04F1880050F846
:101E500025002B46064A36A100900F48FEF7F4FFF6
:101E600000BF6D1C052DEBDB38BD000020000020FD
:101E70009C1B010825733A2073796D626F6C207387
:101E800065747320616C6C6F6361746564202020DD
:101E90003D20252D34640A006C00002025733A2073
:101EA000202020207363616E6E65722073796D73DC
:101EB00020696E20757365203D20252D34640972DC
:101EC000656379636C656420203D20252D34640AA8
:101ED0000000000025733A2020202020696D6167F2
:101EE000652073796D7320696E20757365202020DD
:101EF0003D20252D34640972656379636C65642027
:101F0000203D20252D34640A0000000025733A206E
:101F100073796D626F6C7320616C6C6F6361746553
:101F200064202020202020203D20252D34640A001C
:101F300025733A20202020202072656379636C6528
:101F4000645B25645D20202020202020203D20256A
:101F50002D34640A00000000C2B2054B1A8000BF95
:101F6000034A121F128802F04002002AF8D070477C
:101F70000438014002461078401A00F00F03101D8B
:101F800050F823007047000002460AB9002070474D
:101F9000044880560F30034B5B56C01A024B185C46
:101FA000F5E70000D61B0108B71B010802460AB975
:101FB00000207047024880560844024B185CF8E73E
:101FC000D61B0108B71B0108024602B109B900205F
:101FD000704704488056034B5B561844024B185C0C
:101FE000F6E70000D61B0108B71B010808B5012160
:101FF0001020FEF753FC0320ADF8000010208DF8F0
:10200000030003208DF8020069460448FEF7A6FB92
:1020100003210248FEF72FFC08BD0000001001401C
:1020200010B504466FF00400FEF726FDE11704EB3F
:102030005171C1F3C701074A11701046007800EBD7
:102040004001C1EBC0104FF6FF7101EAC000024928
:10205000088010BD00000020020000202DE9F04F94
:1020600089B007468B4691460020C7F80C08C7F890
:102070000808C7F8040807F2044A07F104084A48A8
:1020800008900790069005900490039002900190AC
:10209000002403E001A800F089F8641C042CF9DB9B
:1020A000B9F5806F01DD4FF480695E46002416E0CB
:1020B000032000EB8400305C0006022101EB840168
:1020C000715C40EA0140012101EB8401715C40EA4E
:1020D000012016F82410084348F82400641CB4EBCF
:1020E000A90FE5DB09F00300A8B116F8240048F8B1
:1020F000240001250AE045EA8400305CE9008840BC
:1021000058F82410084448F824006D1C09F0030016
:10211000A842F0DC641CC4F580718A0008EB8400DE
:102120000021FEF77DFE002418E000250AE001A84A
:1021300050F82500611958F82110084401A941F808
:1021400025006D1C082DF2DB01A800F02FF80AEB2A
:102150008400202201A9FEF759FE0834FF2CE4DD9B
:10216000002418E000250AE001A850F825006119B4
:102170005AF82110084401A941F825006D1C082DCA
:10218000F2DB01A800F012F80AEB8400202201A97A
:10219000FEF73CFE0834FF2CE4DD384600F087F8FB
:1021A00009B0BDE8F08F0000B979379E01460020E4
:1021B00055E0421C02F0070251F82220294B1B5C1B
:1021C0009A4051F820305A4041F82020C21C02F0B9
:1021D000070251F8222051F820301344C21C02F0AB
:1021E000070241F82230421C02F0070251F8223067
:1021F000821C02F0070251F822201344421C02F014
:10220000070241F82230401C421C02F0070251F83C
:102210002220144B1B5CDA4051F820305A4041F820
:102220002020C21C02F0070251F8222051F8203071
:102230001344C21C02F0070241F82230421C02F093
:10224000070251F82230821C02F0070251F82220C6
:102250001344421C02F0070241F82230401C0828B7
:10226000A7DB7047E61B01082DE9F04180460D46CB
:1022700000BF404600F00DF80446B4FBF5F005FB46
:102280001046A71B7819401EB842F2D33046BDE86D
:10229000F08110B50446206810B9204600F007F818
:1022A0002068401E211D206051F8200010BD2DE93E
:1022B000F041044604F20440261DD4F80428D4F862
:1022C0000CC80CF1010CD4F8088808EB0C05C4F814
:1022D0000CC8002175E050F8213082EA423801F143
:1022E000800C50F82CC008EB0C02C3F3870C50F89C
:1022F0002CC09444AC44674640F821C0C7F3872CF7
:1023000050F82CC09C44654646F821C001F1010CF0
:10231000614650F82C3082EA921801F1800C50F896
:102320002CC008EB0C02C3F3870C50F82CC094446B
:10233000AC44674640F821C0C7F3872C50F82CC046
:102340009C44654646F821C001F1010C614650F8F5
:102350002C3082EA820801F1800C50F82CC008EB86
:102360000C02C3F3870C50F82CC09444AC4467466D
:1023700040F821C0C7F3872C50F82CC09C44654618
:1023800046F821C001F1010C614650F82C3082EA78
:10239000124801F1800C50F82CC008EB0C02C3F37A
:1023A000870C50F82CC09444AC44674640F821C0D8
:1023B000C7F3872C50F82CC09C44654646F821C0D2
:1023C000491C802987DB802175E050F8213082EAA2
:1023D0004238A1F1800C50F82CC008EB0C02C3F37A
:1023E000870C50F82CC09444AC44674640F821C098
:1023F000C7F3872C50F82CC09C44654646F821C092
:1024000001F1010C614650F82C3082EA9218A1F1DA
:10241000800C50F82CC008EB0C02C3F3870C50F86A
:102420002CC09444AC44674640F821C0C7F3872CC5
:1024300050F82CC09C44654646F821C001F1010CBF
:10244000614650F82C3082EA8208A1F1800C50F8E5
:102450002CC008EB0C02C3F3870C50F82CC094443A
:10246000AC44674640F821C0C7F3872C50F82CC015
:102470009C44654646F821C001F1010C614650F8C4
:102480002C3082EA1248A1F1800C50F82CC008EBE5
:102490000C02C3F3870C50F82CC09444AC4467463C
:1024A00040F821C0C7F3872C50F82CC09C446546E7
:1024B00046F821C0491CFF2987DDC4F80858C4F834
:1024C00004284FF4807CC4F800C0BDE8F08100000F
:1024D000FFF78CFDFEF720FB4820FFF7A1FDFEF77C
:1024E000C3F8002000F056F8012000F053F8002057
:1024F00000F0C6F8A024A02513E04FF4FA70FFF70F
:102500003FFC29462046FEF7B1FB03210548FEF7B4
:10251000B2F9A0210846FEF7A9FB03210148FEF706
:10252000A8F9EAE7001001402DE9F04104460E4603
:102530001548005D38B914481838016820468847A6
:102540000120BDE8F081114850F82400B04219D9AB
:102550000F4850F82400B6FBF0F10B48083850F84B
:10256000240030F81120002508E000230648083830
:1025700050F824004F1920F817306D1C9542F4DBF9
:102580000020DEE70220DCE71C000020941B01088D
:102590008C1B010810B504460C4951F824104A0060
:1025A0000B4951F82400002100F0BDF8094951F809
:1025B00024200749083951F82400002100F0B3F81D
:1025C000012103480830015510BD0000841B01089B
:1025D00014000020941B01082DE9F04704460F4623
:1025E0000025A9462348005D20B922481838016813
:1025F000204688471FB94FF0FF30BDE8F0871E48DE
:1026000050F82400B7FBF0F61B4850F82400B7FB45
:10261000F0F100FB117000B1761C184850F824004E
:10262000451E22E01348083850F8240030F8150001
:1026300010B909F1010901E04FF00009B14513D1CA
:102640004FF0000809E00B48083850F8240005EB6B
:10265000080220F8126008F10108B045F3D30648DB
:1026600050F824006843C8E76D1E002DDADA4FF0F9
:10267000FF30C2E71C0000208C1B0108841B0108EE
:1026800010B501460023002207E00B4850F8210056
:1026900030F8120000B15B1C521C084850F82100B1
:1026A0009042F2D864205843044C54F82140B0FBC7
:1026B000F4F0C0B210BD000014000020841B01081B
:1026C00070B505460C4604B970BD054850F82500A4
:1026D000261A31462846FFF727FF00BFF4E700001F
:1026E0000C00002070B504460E4631462046FFF728
:1026F00073FF0546681C08B9002070BD024850F8F9
:1027000024002844F9E700000C00002070B50346BF
:102710000C4603E014F8015B03F8015B151EA2F1FF
:102720000102F7D170BD30B5034601E003F8011B8B
:10273000141EA2F10102F9D130BD00002DE9F041D3
:1027400004460F46164631462046FFF745FF05462C
:10275000681C10B90020BDE8F081084951F8241028
:10276000481932463946FFF7D1FF39462046FFF770
:10277000A7FF024850F824002844ECE70C00002092
:1027800070B505460C4621462846FFF7F3FB064682
:10279000601CC1B22846FFF7EDFB304470BD70B538
:1027A00004460D46E06918B930206062A06203E07B
:1027B000A06A08B9606AA062D4E90901401AE0621F
:1027C000606AA062206820B1E16A206808F038F9E8
:1027D00070BD0120FCE72DE9FF4F81B005460E4694
:1027E00090460E9C41463046049A06F0E6F80746AD
:1027F000D8F800003168401A0090049800683168E9
:10280000A0EB010AD8F804007168A0EB0109049854
:1028100040687168A0EB010B00982860C5F804A01F
:10282000C5F80890C5F80CB00BFA04F0C00F404290
:1028300000EB67000BFA04F1C90F494248400BFA5C
:1028400004F1084490FBF7F02861CAF10000A040B1
:10285000C00F404200EB6700CAF10001A140C90F60
:1028600049424840CAF10001A140084490FBF7F1F9
:102870006961C9F10000A040C00F404200EB670150
:10288000C9F10000A040C00F40424140C9F1000022
:10289000A040084490FBF7F1A9610098A040C00F48
:1028A000404200EB67010098A040C00F4042414009
:1028B0000098A040084490FBF7F1E9613068286275
:1028C00070686862AC6205B0BDE8F08F2DE9F04F2A
:1028D00085B006460F469046994656F82800396856
:1028E000484306F1080151F828107A6801FB0204F8
:1028F000C8F1010056F8200039684843C8F10102C8
:1029000006F1080151F822107A6801FB0205002D3A
:1029100001DA64426D42484605F004FC82460094A8
:10292000002C01DB009901E000994942084605F0BE
:10293000F9FB50441D38C0F1000A484605F0F2FB8F
:1029400083460194002C01DB019901E00199494281
:10295000084605F0E7FB58441D38002801DD01203A
:1029600000E0002040420AEA000ACAF10000049098
:10297000012104988140481003900398211804987D
:1029800041FA00F403982918049841FA00F5201E32
:1029900001DB014600E04142A94204DB4FF0FF3079
:1029A00005B0BDE8F08FC9F100004443E00F40429C
:1029B00000EB6500E10F49424840204490FBF5F0F0
:1029C00002900298002801DB014600E0414249459F
:1029D00002DB4FF0FF30E3E70E9902980860002019
:1029E000DEE770B50C6854434D6805FB034691F86B
:1029F0002840641E0125A540741991F828502C41E7
:102A00000D6A2C4404608C685443CD6805FB034672
:102A100091F82840641E0125A540741991F82850AA
:102A20002C414D6A2C44446070BD70B50D6A551B35
:102A30000C696C434E6A9E1B4D6905FB064404609D
:102A40000C6A141B8D6965434E6A9E1BCC6904FB9E
:102A50000654446070BD2DE9FE4F04460F46904673
:102A60009946206E381A0290606EA8EB0000019023
:102A70004FF0000A00200546834622E000261DE0B4
:102A800005EB850004EBC00000EBC600416801982F
:102A90000844009005EB850004EBC00050F83610A8
:102AA00002980B184846DDE90C1205F069FB00FAA4
:102AB0000BF040EA0A0A761C0BF1010B052EDFDB56
:102AC0006D1C052DDADB5046BDE8FE8F2DE9FF4F6A
:102AD000DBB00D465D98801EE96A401A17905E983B
:102AE000801E296B401A16902868179948436A6817
:102AF000169902FB0100A96808441590E868179927
:102B000048432A69169902FB010168690844149038
:102B1000A86917994843EA69169902FB0101286AD6
:102B20000844139028681090E8680F90A8690E90E8
:102B300068680D9028690C90E8690B9000242FE0DC
:102B40001598129014981190DDF84CA0002718E009
:102B500004EB84011DAA02EBC10101EBC700CDF813
:102B600000A02946DDE9113202F050FE10991298BA
:102B7000084412900F991198084411900E988244BD
:102B80007F1C052FE4DB0D991598084415900C99CE
:102B90001498084414900B99139808441390641CDB
:102BA000052CCDDBDDF8D480DDF8D8906B996A98E0
:102BB000CDE900014A4641461DA8699BFFF74BFF3E
:102BC0001A901922FE491A9802F0C1FD0646002EFD
:102BD0007EDDE96A5D98401A1790296B5E98401A6D
:102BE00016902868179948436A68169902FB0100F5
:102BF000A968084480001290E868179948432A6938
:102C0000169902FB01016869084480001190A869C7
:102C100017994843EA69169902FB0101286A08449A
:102C20004FEA800A01247EE00120C0EB44000890B6
:102C30000D99109801441298401A12900C990F980F
:102C400001441198401A11900B990E980844AAEB70
:102C5000000A00275FE0CDF800A029461BA8DDE9A7
:102C6000113202F0D3FD6B996A98CDE900011DA8DD
:102C7000699BDDE91B12FFF7EEFE1990721CD0492B
:102C8000199802F064FD18901898B04206DA199865
:102C90001A90189EDDF86C80DDF87090089840005E
:102CA000B8421ADD0898874201DB012000E00020CD
:102CB000834655F82B1012980844129005F10C0029
:102CC00050F82B1011980844119005F1180000E0FD
:102CD0002FE050F82B0082441AE0089800EB4000E7
:102CE000B84201DC012000E00020834655F82B109B
:102CF0001298401A129005F10C0050F82B10119800
:102D0000401A119005F1180050F82B00AAEB000AA8
:102D100006B904E07F1C08988000B8429BDC00BF25
:102D200006B905E0641C6898B4EB800FFFF67CAF31
:102D300000BF062E0CDD1DA8016E5B9801601DA86A
:102D4000416E5B9841604FF0FF305FB0BDE8F08F9F
:102D50001DA8006EA8EB00000A901DA8406EA9EB0C
:102D600000000990102200214FA8FEF759F82022F8
:102D7000002153A8FEF754F80024C4E0914850F80D
:102D800034001A9908408F4901EBC4014968884210
:102D900070D18D4800EB4400407800EB80001DA905
:102DA00001EBC000884911F8141050F831100A984E
:102DB0000844801008900898002803DB6A99089856
:102DC000884200DB9EE0804800EB4400407800EB46
:102DD00080001DA901EBC0007B4911F8141000EB25
:102DE000C1004168099808444FEAA00BBBF1000FED
:102DF00002DB6B98834500DB84E0734800EB440002
:102E00004078C0F1040000EB80001DA901EBC00078
:102E10006D4911F81410C1F1040150F831100A98ED
:102E20000844801007900798002803DB6A990798E8
:102E3000884200DB66E0644800EB44004078C0F163
:102E4000040000EB80001DA901EBC0005E4911F8F1
:102E50001410C1F1040100EBC10041680998084455
:102E6000801006900698002803DB6B99069888422C
:102E700001DB47E045E01BAB04F00100DDE9062182
:102E8000CDE900B1CDE903030292089B69A807C808
:102E900002F066F9A0BB1B9BA3EB08011C9BA3EBF4
:102EA000090204F001032BB1032001EB410102EB05
:102EB000420200E0012063100DF59E7C5CF8233097
:102EC00003444FEA640C0DF59E7E4EF82C306310DF
:102ED0000DF5A67C5CF833300B444FEA640C0DF51D
:102EE000A67E4EF83C306310F4460CEBC3035B68DF
:102EF00013444FEA640C0EEBCC0CCCF8043000BF4A
:102F000000BF00BF641C082CFFF638AF0024E7E0C8
:102F100062004FAB53F82200012202EB440253F847
:102F2000221000287DD000297BD0431A814202DD87
:102F30004FF0010C01E04FF0000CCCF1000C03EA63
:102F40000C03C21A63000DF5A67C5CF833304B43CA
:102F50004FF0010C0CEB440C0DF5A67B5BF83CC06C
:102F600000FB0C335343DB0FC3F1000C00FB01F3F8
:102F70000CEB63034FEA440C5BF83CC00CFB01FC18
:102F80004FF0010B0BEB440B0DF5A67E5EF83BB04A
:102F900000FB0BCC0CFB02FC4FEADC7CCCF1000C00
:102FA00083EA0C034FEA440CF3465BF83CC00CFB8D
:102FB00001FC4FF0010B0BEB440B5EF83BB005E05E
:102FC0003FD6F801E81D0108281E010800FB0BCCC4
:102FD00002FB0C3C00FB01F39CFBF3F34FEA440CB7
:102FE000F3464BF83C30DC460CEB04135B684B4378
:102FF0004FF0010C0CEB440C0BEBCC0CDCF804C0D8
:1030000000FB0C335343DB0FC3F1000C00FB01F357
:103010000CEB63030BEB041CDCF804C00CFB01FCA1
:1030200000E035E04FF0010B0BEB440B0EEBCB0B4C
:10303000DBF804B000FB0BCC0CFB02FC4FEADC7CA1
:10304000CCF1000C83EA0C03F3460BEB041CDCF818
:1030500004C00CFB01FC4FF0010B0BEB440B0EEB1F
:10306000CB0BDBF804B000FB0BCC02FB0C3C00FBF1
:1030700001F39CFBF3F3F3460BEB041CCCF8043098
:1030800053004FEA440C0DF59E7B4BF82C3026E0A4
:10309000620053AB53F83220012303EB44030DF5D8
:1030A000A67C5CF833301A4463004CF8332053ABF1
:1030B00003EB04125268012303EB44030CEBC3033C
:1030C0005B681A440CEB04135A6062004FAB53F870
:1030D00022200A4463000DF59E7C4CF82320641CDA
:1030E000022CFFF615AF579953980844539053A8F4
:1030F000549940690844549051994F9808444F900E
:103100004F98D8B35398C00F40424F9900EB6100DD
:103110005399C90F49424840539908444F9990FB2D
:10312000F1F00A905498C00F40424F9900EB6100B3
:103130005499C90F49424840549908444F9990FB0B
:10314000F1F009906B996A98CDE90001099809EBB3
:1031500000020A9808EB00011DA8699BFFF77BFCA1
:103160001990721C0949199802F0F1FA18901898F0
:10317000B04203DC0A988044099881445B98C0F807
:1031800000805B98C0F804900020DEE53FD6F8018F
:103190002DE9F74F86B00D46904600200590002D92
:1031A00075DDB8F1000FFBDD05FB08F0FDF727FE2C
:1031B00005900420049002E00498401C04900498B8
:1031C000082807DA0121049801FA00F0E91DB0EBA4
:1031D000E10FF1DB4FF0040901E009F10109B9F158
:1031E000080F07DA012000FA09F008F10701B0EB37
:1031F000E10FF2DB0121049801FA00FA012000FA44
:1032000009FBA800FDF7FBFD074600240BE006982C
:10321000005D0190A9F10101019800FA01F1084453
:1032200047F82400641CAC42F1DB01261FE0A8F142
:103230000100801BA8F10101B14201DA012100E087
:1032400000214942084030446843029000240BE0CA
:10325000029801190698405C019057F824100198D3
:10326000084447F82400641CAC42F1DB761CB6EB42
:103270006B0FDCDB0026C2E0D7F800C0049B5B1EAE
:103280000CFA03FC3B680CEB0300012414E0BDE0E6
:103290006B1E1B1BA5F1010CA44502DA4FF0010CBB
:1032A00001E04FF0000CCCF1000C03EA0C031919FB
:1032B00057F821301844641CB4EB6A0FE8DB002493
:1032C0004DE006FB054C069B13F80C300193049B64
:1032D00003EB090C019BDB1C03FA0CF3834201D2C4
:1032E000012300E000235B4206FB054EDDF814C01D
:1032F0000CF80E30631CAB4230DAA4EB6A035B427D
:10330000A4EB6A0CBCF1000F02DD4FF0010C01E0F0
:103310004FF0000CCCF1000C03EA0C035A426B1E78
:1033200004EB6A0CA3EB0C03A5F1010C04EB6A0E91
:10333000F44502DA4FF0010C01E04FF0000CCCF143
:10334000000C03EA0C0304EB6A0C03EB0C0157F8C6
:10335000213057F822C0A3EB0C031844641CAC4284
:10336000AFDB731C434549DAA6EB6B035B42A6EB6C
:103370006B0CBCF1000F02DD4FF0010C01E04FF0CF
:10338000000CCCF1000C03EA0C035B426B4303938B
:10339000A8F1010306EB6B0CA3EB0C03A8F1010CE5
:1033A00006EB6B0EF44502DA4FF0010C01E04FF032
:1033B000000CCCF1000C03EA0C0306EB6B0C63442D
:1033C0006B430293002417E057F824C0039B03EBE0
:1033D000040E069B13F80E30ACEB030347F82430C1
:1033E00057F824C0029B03EB040E069B13F80E3023
:1033F000634447F82430641CAC42E5DB761C464548
:10340000FFF63AAF3846FDF7F3FC00BF059809B068
:10341000BDE8F08F70B503460C4619462246886811
:103420009568A84201DD012000E000208D689668C3
:10343000B54201DA012500E00025401BCD68D668C1
:10344000B54201DD012500E0002505EB4000CD6817
:10345000D668B54201DA012500E00025401B70BDA9
:1034600070B50446002515E005EB4501206810F80D
:10347000210005EB4502216811F82210491E084081
:1034800038B905EB4502216801EB82014868FDF778
:10349000AFFC6D1C6068A842E6DC2068FDF7A8FC64
:1034A00070BD70B504460D46D4E9010188420CDBBD
:1034B0000121A06801EB4000A060A26802EB42027B
:1034C00011012068FDF7B6FC20606268511C616044
:1034D00002EB4201226802EB011030222946FDF77F
:1034E00095FC70BD70B50446002507E005EB45026C
:1034F000216801EB0210FFF7B3FF6D1C6068A84262
:10350000F4DC2068FDF774FC204600F087FA70BDFB
:103510002DE9F74FAAB02A98D0F800B02A98406851
:10352000269026998800FDF76AFC249001212698B0
:10353000FDF74CFC259000202390229062E2229916
:103540002598405C002875D1229800EB40000BEBD9
:103550000010C07A002844D0229901EB41010BEB06
:103560000111C97A0D91229901EB41010BEB011177
:10357000087B002405E04FF0FF310EAA42F824102A
:10358000641C0D998C42F6DB229C26E02599095D8E
:1035900011BB04EB44010BEB0111CA7A0D998A426D
:1035A0001AD104EB44010BEB0111097B814213D1C9
:1035B00004EB44010BEB0111897A0EAA52F8211099
:1035C000002909DA04EB44010BEB0111897A42F876
:1035D0002140012225990A55641C26998C42D5DB8D
:1035E00003E022980E9001200D9000200C900B908B
:1035F00000243BE00EA850F82400002835DB0EA87C
:1036000050F8240000EB40000BEB0017002008905E
:1036100027E03A68089901EB410102EB810600209E
:10362000317804290DD0052905D0082907D00929AA
:1036300009D101E0E3E100BF01210B910DE0401C45
:1036400000BF401C00BF31784A1E114021B9B1684B
:1036500081400C9A11440C9100BF00BF0898401C97
:103660000890796808988142D3DC641C0D988442E4
:10367000C0DB0C99481CFDF7C2FB81460025681E83
:103680000A9027981F902998209028982190681ECA
:103690001E900020099007900DF11C080024ECE01A
:1036A000002240212B98FDF70EFFC8F80000D8F843
:1036B000000085600EA850F82400002824DA0120BC
:1036C000D8F800100880641C00E0641C0D98844247
:1036D00004DA0EA850F824000028F6DB0D98844286
:1036E00000DBD1E0002228466D1C09F80020D8F844
:1036F00000008560D8F8000000F1200840212B98D8
:10370000FDF7E1FEC8F800000EA850F8240000EB19
:1037100040000BEB0017D7E90412D8F8000007F0BF
:10372000FBF8D7E90812D8F8000007F0F5F8D7E958
:103730000A12D8F8000007F0EFF8D7E90612D8F817
:10374000000007F0E9F80020089089E0396808983F
:1037500000EB400001EB8006307809287BD2DFE8DF
:1037600000F07A05167A6D7A7A7978000C98411B08
:10377000B068814208D309EB0500D6E90112FDF7D4
:1037800045FBB068054401E00120099064E07068E1
:103790000690D6F808A00B98D8B300BF5246252152
:1037A0000698FCF799FD0590059800B932E0DDE92F
:1037B0000501401A04900C98411B0498401C81425A
:1037C00000D227E009EB0500049A0699FDF71EFBDD
:1037D000049805440498401C50450BD20598407845
:1037E000252807D103900498401C04900598401C9C
:1037F000059001E01D20039029466D1C039809F8EF
:1038000001000498401CAAEB000A0598401C069091
:10381000C4E700E001E000200590059818B90C9875
:10382000401B504502D20120099006E0524609EBA8
:1038300005000699FDF7EAFA55440DE009EB05028B
:10384000D6E9010107F02AFF05900598054403E039
:1038500001E001E000E000BF00BF0898401C0890B4
:1038600079680898814203DD099800283FF46EAF1B
:10387000641CD8F8000000F120080D98844203DA97
:10388000099800283FF40CAF00BF0998002879D1AF
:10389000002228466D1C09F800200C98401CA84204
:1038A00004D929464846FDF7C5FA81460D980128F6
:1038B00002D1DDF81CA08EE0002240212B98FDF7FC
:1038C00002FE8246FEF708F8CAF824000798DAF8E4
:1038D000241088602C98406806906FF001000590D5
:1038E0002C98806804906FF00100039057E00798CF
:1038F0000090012001900198009AD2691318009A53
:103900001946D36100BF29B90198002802DC00984C
:10391000FDF7B8FF00BF07980088012802D1AAF878
:10392000000023E000241DE00799896951F8340064
:103930000699814201DB411E06910599814201DC15
:10394000411C05910799896901EBC40148680499F4
:10395000814201DB411E04910399814201DC411C3B
:103960000391641C07984069A042DDD807988068DD
:1039700048440799C8600798006A20B10798006A10
:10398000806801E033E02846029007988168029839
:10399000401A401E079988600798006A07900798A8
:1039A0000028A4D10598B0F1FF3F13DB5046049ADC
:1039B000069906F0B1FF5046039A069906F0ACFF4F
:1039C0005046039A059906F0A7FF5046DDE9042109
:1039D00006F0A2FF00BFCAF80C90CAF80450681E97
:1039E000CAF8080051462B98FDF73DFD06E00799FF
:1039F0002B98FDF7D4FD4846FDF7FAF900BF229851
:103A0000401C2290269922988842FFF698AD25986E
:103A1000FDF7EEF923982DB0BDE8F08F002101608D
:103A200081604160704700002DE9FF4F87B0054677
:103A3000002028606860E87202900898092801DD7B
:103A4000012100E0002108981A2801DD012000E092
:103A5000002001EB000903A8DDE9091204F06CFF66
:103A6000F4E1042103A804F06DFF074607B9F3E170
:103A70006968029881420CDB0121029801EB400049
:103A80000290029A02EB420291002868FDF7D2F9F7
:103A900028606968481C686001EB4100296801EBF7
:103AA0008004FF2020700A2F74D2DFE807F073052E
:103AB00096FDF5F473F3F2F1EE4810F8291003A81F
:103AC00004F040FF8246BAF1000F04DA4FF0FF30F5
:103AD0000BB0BDE8F08F03209AFBF0F001900320BB
:103AE0009AFBF0F100FB11AB03A804F01DFF0146A7
:103AF000019800EB80004000CBF34002072303FB5A
:103B000002000BF00102042303FB0200814201DAF0
:103B1000581FDDE727705046FDF771F906466060D3
:103B2000C4F808A023E00A2103A804F00BFF804694
:103B3000B8F57A7F02D34FF0FF30C9E76420B8FBB5
:103B4000F0F0303006F8010B6420B8FBF0F100FB18
:103B500011880A20B8FBF0F0303006F8010B0A207B
:103B6000B8FBF0F100FB1180303006F8010B019832
:103B7000411E01910028D6DCBBF1010F1ADD07219F
:103B800003A804F0DFFE8046B8F1640F03D34FF0C2
:103B9000FF309DE755E10A20B8FBF0F0303006F821
:103BA000010B0A20B8FBF0F100FB1180303006F861
:103BB000010B11E0BBF1000F0ED0042103A804F0AB
:103BC000C1FE8046B8F10A0F02D34FF0FF307FE705
:103BD00008F1300006F8010B36E1A64800EB890039
:103BE000417803A804F0AEFE8246BAF1000F02DA73
:103BF0004FF0FF306CE74FEA6A0B0AF001000190CA
:103C000003A804F091FE01460BEB4B0000EBCB0246
:103C10000623019803FB0020814201DAD81F57E7F1
:103C200027705046FDF7EBF806466060C4F808A020
:103C30001CE00B2103A804F085FE8046B8F5FD6F5B
:103C400002D94FF0FF3043E72D20B8FBF0F08A494E
:103C5000085C06F8010B2D20B8FBF0F100FB118089
:103C60008549085C06F8010BAAF1020ABBF10000C5
:103C7000ABF1010BDDDC0198A8B1062103A804F02B
:103C800061FE8046B8F12D0F08D34FF0FF301FE7DB
:103C9000D5E08BE04BE048E01EE005E0764810F808
:103CA000080006F8010BCFE02770102103A804F0EC
:103CB00049FE0646002E02DA4FF0FF3008E7C6F351
:103CC00003302071A872C6F30320401C6071E872B3
:103CD000F1B2A1712973B7E0664800EB89008178E1
:103CE00003A804F02FFE0646002E02DA4FF0FF3044
:103CF000EEE603A804F018FEB0EBC60F02DA4FF0B0
:103D0000FF30E5E627703046FDF779F880466060C1
:103D1000A66005E0082103A804F014FE08F8010BD2
:103D2000301EA6F10106F5DC8EE027708CE008213C
:103D300003A804F007FE0646002E02DA4FF0FF301B
:103D4000C6E606F0800008B9B0462BE006F0400059
:103D500070B906F47C58082103A804F0F3FD064668
:103D6000002E02DA4FF0FF30B2E648EA060819E00A
:103D700006F0200098B906F4F818102103A804F002
:103D8000E1FD0646002E02DA4FF0FF30A0E648EAD9
:103D900006083A48804505D34FF0FF3098E64FF0CB
:103DA000FF3095E62770C4F804804DE0314800EB01
:103DB0008900C17803A804F0C5FD8246BAF1000F5E
:103DC00002DA4FF0FF3083E603A804F0ADFD0AEB02
:103DD0008A0101EBCA01884202DA4FF0FF3077E630
:103DE00027704FEA4A00FDF70AF8064660604FEA7E
:103DF0004A01A1601DE00D2103A804F0A3FD804647
:103E0000C020B8FBF0F100FB1180C021B8FBF1F13C
:103E100040EA012048F2401100EB0108B8F5204FBC
:103E200001D308F580484FEA182006F8010B06F880
:103E3000018BBAF10000AAF1010ADCDC04E0277072
:103E400002E04FF0FF3043E600BF00BF03A804F0DC
:103E50006BFD0428BFF605AE00BF002068736A68DA
:103E600002EB420291002868FCF7E4FF2860002082
:103E70002EE60000381E01089A1C010840420F007F
:103E80002DE9FF4F9BB08146299F09F11003DDE921
:103E90002B212D98CDE90132CDE90310289800900F
:103EA00039460DA8DDE91D2305F0F2F9112000EBDC
:103EB0008700069006991F314911069A51438800E0
:103EC000FCF79DFF0C90DDE92B122D98CDE9001237
:103ED00002900DA82A9B069A0C9905F008FF012173
:103EE0002A9881EAE0000890781E504901EB800191
:103EF00008980D5C781E4E49085C4E4901440898AC
:103F0000085C0790384600F097F8064696FBF5F0F7
:103F1000099096FBF5F005FB1060281A0A90A8009E
:103F2000FCF76DFF0B903046FCF769FF80460B985D
:103F3000C0F80080012410E0601E0B9951F8201099
:103F4000099801440A98844201DD012000E0002024
:103F500001440B9840F82410641CAC42ECDB139A2B
:103F60000C990698CDE90012029007990998421A17
:103F70002946DDE90A3005F00FF80DA805F04DF9E6
:103F80000B98FCF735FF0C98FCF732FF4FF0000A56
:103F9000002600200590002428E00A98844201DBD6
:103FA000012100E00021099801EB000B0021079896
:103FB000CDE9000108EB06025B4602911C9805F072
:103FC00095FF002803DA4FF0FF30059010E00798C6
:103FD000ABEB0000049008EB060108EB0A00049A22
:103FE000FCF753F95E4404988244641CAC42D4DB71
:103FF00000BF0598002811DB534642463946484623
:10400000FFF712FD05900598002802DA4846FFF7F1
:1040100027FA89F80870089889F809004046FCF7E3
:10402000E7FE05981FB0BDE8F08F0000361D0108BF
:104030000E1D0108C71C010810B50146012901D158
:104040001A2010BD0720B1FBF0F0821C080101F11D
:104050000803584302EB820402EB82039B1E04FB1D
:104060001300072901D2012300E00023242404FBCC
:1040700003005330C008E4E72DE9F04780460F46BF
:10408000914607F11F004611B9F1070F6FD2DFE823
:1040900009F004171F34556F9C004FF0550A002596
:1040A0000BE0B2000AF0FF0105FB06F308EB83000A
:1040B000FCF7B6FE8AF0FF0A6D1CBD42F1DBE0E0C2
:1040C00007FB06F0820055214046FCF7A9FED8E028
:1040D0004FF0FF0A00250DE0B2000AF0FF0105FBDA
:1040E00006F308EB8300FCF79BFE4FEA0A2040EA48
:1040F0001A4A6D1CBD42EFDBC3E00020002405E03E
:1041000004EB440301229A401043641C0B2CF7DBA0
:10411000002510E00146002407E005FB064248F8B0
:1041200022108A0842EA4101641CB442F5DB4208CD
:1041300042EA80006D1CBD42ECDBA2E04FF0070AB2
:10414000002511E0B2000AF001035B4283F0CC03CA
:10415000D9B205FB06F308EB8300FCF761FE4FEADA
:104160005A0040EA4A1A6D1CBD42EBDB89E05AE076
:10417000002527E0002000240DE004FB05F10622C5
:1041800091FBF2F302FB131109B9012100E00021B8
:10419000A1400843641C062CEFDB062403E000FA70
:1041A00004F108436400202CF9DB002407E005FB40
:1041B000064148F82100810841EA0010641CB4421D
:1041C000F5DB6D1CBD42D5DB5BE0002528E000205F
:1041D00000240EE004FB05F1032291FBF2F302FB45
:1041E000131104FB0511491C01F00101A140084312
:1041F000641C062CEEDB062403E000FA04F10843FD
:104200006400202CF9DB002407E005FB064148F898
:104210002100810841EA0010641CB442F5DB6D1CEA
:10422000BD42D4DB2DE0002528E0002000240EE074
:1042300004FB05F1032291FBF2F302FB131121446D
:104240002944491C01F00101A1400843641C062CCB
:10425000EEDB062403E000FA04F108436400202C9E
:10426000F9DB002407E005FB064148F8210081083E
:1042700041EA0010641CB442F5DB6D1CBD42D4DB86
:1042800000BF00BFBDE8F087F0B503460C461946F5
:104290002246D068CD68A84201DD012000E0002060
:1042A000D568CE68B54201DA012500E00025401B43
:1042B00080004D685668B54201DD012500E000250B
:1042C0004E685768BE4201DA012600E00026AD1BA9
:1042D00000EB45000D681668B54201DD012500E0E0
:1042E000002528440D681668B54201DA012500E072
:1042F0000025401BF0BD00002DE9FF4F8BB0164696
:10430000D6F8100B0A9040F6143050F806B040F67C
:104310001C3080590990D6F8208B4FEA8B00FCF7AF
:104320006EFD08904FEA6B01C800FCF768FD07902E
:1043300000205B4600900A9ADDE9070100F06EF864
:104340000446354B142241460998FBF750FF4FEACB
:104350008800FCF754FD06904FEA6801C800FCF79E
:104360004EFD0590012043460090099ADDE90501C4
:1043700000F054F80746032C3CDB032F3ADB4FF0E8
:10438000000A002505E0079800EBC500406882445C
:104390006D1CA542F7DB002505E0059800EBC50084
:1043A000406882446D1CBD42F7DB4FEA4A0A4FEA7F
:1043B0000A10FCF724FD8146391BA74201DA0122CD
:1043C00000E000225242114021440801FCF717FD91
:1043D000039005982346CDE900074946079A0398BC
:1043E00000F08CFB04900B99039808600C98C0F8BF
:1043F000009001E0002004900598FCF7F9FC069875
:10440000FCF7F6FC0798FCF7F3FC0898FCF7F0FCC7
:1044100004980FB0BDE8F08F035700082DE9FF4F57
:1044200083B016469946109C01214846FCF7CEFC05
:104430008246049F002002908046F2E01AF80800AD
:10444000002878D1012508EB880006EB8000386051
:1044500008EB880006EB80008068019008F10102FB
:10446000ABE01AF8020000287ED1A5F1010C57F844
:104470002C0002EB820C06EB8C01D0F808C00CF18A
:10448000070C4FEAAC03C4F1010B50F82BB0C4F198
:10449000010E51F82EE0ABEB0E0CBCF1000F01DB6E
:1044A000E34601E0CCF1000B9B4500DD88E050F8CD
:1044B00024B051F824E0ABEB0E0CBCF1000F01DB93
:1044C000E34601E0CCF1000B9B4500DD74E050F8C1
:1044D00024B0D0F808E0F34451F824E0ABEB0E0B25
:1044E000D1F808E0ABEB0E0CBCF1000F01DBE346AA
:1044F00001E0CCF1000B9B4500DD5DE0D0F80CB095
:10450000BBF1000F1DDDD1F80CB0BBF1000F18DDC1
:1045100050F824B0D0F80CE0ABEB0E0B51F824E0CF
:10452000ABEB0E0BD1F80CE00BEB0E0CBCF1000F5B
:1045300002DBE34602E071E0CCF1000B9B4500DDBD
:104540003AE0D0F810B0BBF1000F24DDD1F810B084
:10455000BBF1000F1FDD50F824B0D0F808E0F344A1
:10456000D0F810E0F34400E025E051F824E0ABEB94
:104570000E0BD1F808E0ABEB0E0BD1F810E0ABEB73
:104580000E0CBCF1000F01DBE34601E0CCF1000BA7
:104590009B4500DD10E002EB820C06EB8C0BAC4679
:1045A0006D1C47F82CB0D1F808B0DDF804C0DC442D
:1045B000CDF804C000BF00BF521C4A45FFF651AF02
:1045C00000BF032D00DA2AE0019805EB40006900E6
:1045D00090FBF1F0019005EB85010198B0EB810FA4
:1045E0001BDCDDE9021040F83170DDE9021000EB60
:1045F000C1004560002209E057F82200801B142109
:1046000090FBF1F001210AF80010521CAA42F3DBE2
:1046100007EB85070298401C029000BF00BF08F11D
:104620000108A9F1010040453FF708AF5046FCF7EB
:10463000DFFB029807B0BDE8F08F00002DE9FC47D2
:1046400004468946A66C002505E0002104F12000FF
:1046500040F825106D1C042DF7DB00273FE0B06803
:1046600000EB07104368B06800EB0710494602688A
:104670006846FEF7DAF9606C4242206C41426846B7
:1046800004F0BBF90199002901DB0A4600E04A4227
:104690000098002801DB034600E043429A4201DD16
:1046A000012200E0002290465DF82800012101EB84
:1046B000E07040EA480504F1200050F82500401C55
:1046C00004F1200141F82500B06800EB0710856077
:1046D0005DF82800B16801EB0711C8607F1CF06825
:1046E000B842BCDC0E4B1022D6E90201FBF77FFD7D
:1046F000B068206101250EE0681E04F1100151F838
:104700002020103151F8200002EB001104F11000BC
:1047100040F825106D1C042DEEDBBDE8FC87000081
:10472000153400082DE9F047044616461F46089D3B
:1047300000224BE056F822C0002342E0DCF8008063
:1047400058F82300D0F80C80B8F1000F18DD04EB06
:104750000119D0F80080C9F8008004EB0119D0F8E5
:104760000480C9F8048004EB011858F82580D0F8BB
:104770000C90A8EB090804EB011949F82580491CA5
:10478000D0F81080B8F1000F1ADD04EB0119D0F851
:104790000080C9F8008004EB0119D0F80480C9F842
:1047A000048004EB011858F82580D0F810A0D0F848
:1047B0000890D144C84404EB011949F82580491CEC
:1047C0005B1CDCF804009842B8DC521CBA42B1DB36
:1047D0000846BDE8F08700002DE9FC4704468946FD
:1047E000A66C002505E0002104F1200040F825100A
:1047F0006D1C042DF7DB00274CE0B06800EB0710C0
:104800004368B06800EB071049460268684603F049
:104810009DFB002833DB606C4242206C41426846BD
:1048200004F0EBF80199002901DB0A4600E04A4256
:104830000098002801DB034600E043429A4201DD74
:10484000012200E0002290465DF82800012101EBE2
:10485000E07040EA480504F1200050F82500401CB3
:1048600004F1200141F82500B06800EB07108560D5
:104870005DF82800B16801EB0711C86009E0042069
:10488000B16801EB071188600098B16801EB07116E
:10489000C8607F1CF068B842AFDC0E4B1022D6E92E
:1048A0000201FBF7A4FCB068206101250EE0681E40
:1048B00004F1100151F82020103151F8200002EBD2
:1048C000001104F1100040F825106D1C042DEEDBE2
:1048D000BDE8FC87153400082DE9F74F8CB003467E
:1048E00000200B900A90002158E003F1200050F8BE
:1048F0002100002848DD03F1100A5AF821A0CDF864
:1049000004A003F1200A5AF821004FF000084FEAF2
:10491000A00908E0DDF804A00AEB091ADAF80CA0F7
:10492000D04409F10109A0EBA00ACA45F2DC4FEA24
:10493000A00AA0EB4A004FEAD87ACAF1000A0AEBB3
:10494000600A4FEAD87BCBF1000B8AEA0B0AC2441B
:104950009AFBF0FACDF800A04FEA610A0DF1280B9E
:104960005BF82AB0DDF800A0DA444FEA610B0DF1E4
:10497000280E4EF82BA00DF1180A4AF821800DF1EF
:10498000080A4AF8210008E000200DF1180848F84C
:1049900021000DF1080848F82100491C0429A4DB76
:1049A000186A00281CDD586A002819DD186CDDF82B
:1049B0002880A0EB68001864DDF808800A9800FBE6
:1049C00008F0DDF81880A8EB60000690DDF80C8098
:1049D0000A9800FB08F0DDF81C80A8EB6000079047
:1049E000986A00281DDDD86A00281ADD586CDDF8A9
:1049F0002C80A0EB6808C3F84480DDF810800B9889
:104A000000FB08F0DDF82080A8EB60000890DDF8DE
:104A100014800B9800FB08F0DDF82480A8EB600000
:104A20000990DDE9020800EB0804002C04DC4FF0DB
:104A3000FF300FB0BDE8F08F04EB4404DDE90680E1
:104A4000A0EB080204EB42004FEA440890FBF8F2A6
:104A5000002A02DC4FF0FF30EBE74FF008080D981A
:104A600008FB12004FEA820890FBF8F7012F01DBE8
:104A70002B2F02DD4FF0FF30DBE7DDE9040800EB10
:104A80000806002E02DC4FF0FF30D2E706EB4606A8
:104A9000DDE90880A0EB080506EB45004FEA460873
:104AA00090FBF8F5002D02DC4FF0FF30C1E74FF02E
:104AB00008080E9808FB15004FEA850890FBF8FCE3
:104AC000BCF1010F02DBBCF12B0F02DD4FF0FF3018
:104AD000AFE7A7EB0C00002801DB804601E0C0F146
:104AE0000008B8F1030F02DD4FF0FF30A1E71A60B4
:104AF0005D609F60C3F80CC000209AE72DE9FF4F6E
:104B00008BB017469A464FEA8A00FCF778F90A906C
:104B100019998800FCF773F9834601215046FCF788
:104B200055F9099001211998FCF750F908900020D7
:104B300007908046DAE0099810F8080000287DD137
:104B400057F8380007EBC8014968491050F8215060
:104B500000208146059000242FE00898005D58BB96
:104B6000189850F8341000EBC4004068401051F819
:104B700020603146284600F0DAFAE8B101210898B1
:104B80000155D6E9011000EB410105980844059054
:104B9000F068002808DD3069002805DDD6E903103B
:104BA000411A059808440590189800EBC40248463D
:104BB00009F101094BF82020641C19988442CCDBD0
:104BC000B9F1000F7EDDA968286801EB4000029072
:104BD000E868002808DD2869002805DDD5E903100C
:104BE000411A02980844029007EBC8010A98016034
:104BF000012003904FEA69045BF8240000685BF829
:104C000024104968491050F8216008F1010430E08F
:104C10000998005D60BB57F8340007EBC401496890
:104C2000491050F821503146284600F080FAF8B17A
:104C30000121099801552968A86800E054E000EBBB
:104C40004101029808440290E868002808DD2869BC
:104C5000002805DDD5E90310411A029808440290A6
:104C600007EBC4020398411C03910A9941F82020E4
:104C7000641C5445CCDB0798411C07910B9901EB50
:104C800000100490DDE9020101440398400091FB0B
:104C9000F0F104980160059848444FEA490190FBFF
:104CA000F1F1049841600C99049881600020009013
:104CB0000146039B0A9A0C98FFF734FD06900120E9
:104CC0004B4600E00FE05A46009006990C98FFF71B
:104CD00029FD069006990498C16006990C9800EB8E
:104CE00001100C9000BF00BF08F10108D045FFF68D
:104CF00022AF0898FCF77CF80998FCF779F8584639
:104D0000FCF776F80A98FCF773F8054B1022079920
:104D10000B98FBF76CFA07980FB0BDE8F08F000016
:104D2000894200082DE9F04F9FB006468A46934617
:104D30001C4600201B9005223168306C02FB0108E4
:104D400003227168706C02FB1109206800FB08F0F7
:104D5000616801FB09001890A06800FB08F0E16899
:104D600001FB09001790206900FB08F0616901FB55
:104D70000900216B084416906068716848431590DB
:104D8000E068716848431490606971684843139003
:104D900000200546029000BF062D19D016980090FD
:104DA00021461DA8DDE9173202F067FB1E9800902E
:104DB0001D9B28A807C803F0E3F901460298421C8E
:104DC000814002921B9801431B91082D00DB0DE0EE
:104DD0001599189808441890149917980844179032
:104DE00013991698084416906D1CD5E700BF002053
:104DF000199020684042316848431590A0684042AD
:104E00003168484314902069404231684843139008
:104E100024E0159918980844189014991798084494
:104E200017901399169808441690062D16D01698C8
:104E3000009021461DA8DDE9173202F01EFB1E98E6
:104E400000901D9B28A807C803F09AF90146029814
:104E5000421C81400292199801431991281EA5F124
:104E60000105D6DC00201C900322DAF80010DAF8E5
:104E7000400002FB01080522DAF80410DAF84400C9
:104E800002FB0109206800FB08F0616801FB0900D2
:104E90001890A06800FB08F0E16801FB090017907A
:104EA000206900FB08F0616901FB0900216B0844DF
:104EB000169020684042DAF8001048431590A06828
:104EC0004042DAF800104843149020694042DAF872
:104ED0000010484313900020029022E016980090A2
:104EE00021461DA8DDE9173202F0C7FA1E9800908E
:104EF0001D9B28A807C803F043F9029988401C9914
:104F000008431C90159918980844189014991798FC
:104F10000844179013991698084416900298401C5C
:104F2000029002980828D9DB00201A900522DBF8AD
:104F30000010DBF8400002FB01080322DBF804103C
:104F4000DBF8440002FB1109206800FB08F06168EF
:104F500001FB09001890A06800FB08F0E16801FB64
:104F600009001790206900FB08F0616901FB090046
:104F7000216B084416906068DBF8041048431590D4
:104F8000E068DBF80410484314906069DBF8041013
:104F9000484313900820029022E016980090214682
:104FA0001DA8DDE9173202F068FA1E9800901D9BDB
:104FB00028A807C803F0E4F8029988401A99084322
:104FC0001A9015991898084418901499179808443D
:104FD000179013991698084416900298401C029056
:104FE00002980F28D9DBDDE91901884201D001219F
:104FF00000E00021022088400490DDE91B01884286
:1050000001D1012000E00020401C03900020069008
:1050100000254BE005F001001BA951F820006910A4
:1050200019AA52F82110084345F212414840019054
:1050300001A8FCF73BFD00900198800A01900098C0
:10504000002801DA04200090002700BF069887425C
:105050000FDB0FA9019841F8270001200BA941F8A7
:10506000270007A9009841F827000698401C0690E1
:1050700019E00FA850F827000199884211D10BA818
:1050800050F82700401C0BA941F8270007A850F84A
:1050900027100098814203DD07A9009841F82700F6
:1050A00001E07F1CD2E700BF0398054404988542C5
:1050B000B0DB00200590012526E007A9059851F8EE
:1050C0002000032804DD07A850F82500032819DD77
:1050D0000BA850F825100BAA059852F82000814221
:1050E00010DC0BA850F82510059852F820008142DA
:1050F00009D107A850F8251007AA059852F82000F2
:10510000814200DA05956D1C06988542D5DB07A91A
:10511000059851F82000042806DA0FA9059851F8DF
:1051200020001FB0BDE8F08F4FF0FF30F9E70246D6
:1051300010680B68984211DC9368106818440B687B
:1051400098420BDD48685368984207DCD1E90103B7
:1051500018445368984201DD012070470020FCE7A5
:105160002DE9F04F88B004468C4611AD95E8E00378
:105170000693079504960597F01A002801DB8346ED
:1051800001E0C0F1000BCDF808B0781B002801DB6E
:10519000834601E0C0F1000BCDF80CB0DDE902B0B0
:1051A000584501DD012000E0002001460022C1F148
:1051B00001000DF1080B5BF820A0B34201DA0120D9
:1051C00000E000204FF0010BCBEB40000090BD420F
:1051D00001DA012000E000204FF0010BCBEB400092
:1051E000019000BF06A850F821000DF1100B5BF8EC
:1051F00021B0584504D14FF0FF3008B0BDE8F08F22
:1052000006A850F821005DF821B058440DF1180BA4
:105210004BF82100524402A850F82100B0EB420F95
:1052200012DAC1F101005BF82000C1F1010B5DF859
:105230002BB05844C1F1010B0DF1180E4EF82B00A4
:1052400002A850F82100121ADDE9060B0BFB0C0036
:10525000205C08B9012000E000204045C2D000BF1A
:1052600000BF002200BF06A850F821000DF1100B6E
:105270005BF821B0584500D131E004A850F8210076
:105280005DF821B0A0EB0B000DF1100B4BF82100E5
:10529000524402A850F82100B0EB420F13DAC1F1DA
:1052A00001005BF82000C1F1010B5DF82BB0A0EB11
:1052B0000B00C1F1010B0DF1100E4EF82B0002A8EE
:1052C00050F82100121ADDE9040B0BFB0C00205CE6
:1052D00008B9012000E000204045C4D000BF00BF55
:1052E000DDF810B006985844401C80004010C9F802
:1052F0000000DDF814B007985844401C80004010AE
:10530000C9F80400002078E72DE9F041044606AD15
:1053100095E8E010002B0DDB8B420BDA002D09DB4A
:10532000954207DA002E05DB8E4203DA002F01DBFF
:10533000974203DB4FF0FF30BDE8F08105FB013001
:10534000205C08B9012000E00020604508D107FB7F
:105350000160205C08B9012000E00020604501D018
:105360000120E9E7E8194010484303EB060800EB89
:105370006800205C08B9012000E00020604502D1EF
:105380004FF0FF30D8E70020D6E72DE9FF4F8DB072
:1053900006461F4606F1100050F82740103050F81E
:1053A000278000200C90B8F1010F73DD11200B90C5
:1053B0004FF00009AEE041460F98FCF755FF05900D
:1053C000A8F101010F98FCF74FFF0490DDE90401FB
:1053D000884202DB0498401C0490059804EB0010FE
:1053E0000390049804EB0010029003980CC809A8DD
:1053F0000E99FDF71AFB02980CC807A80E99FDF745
:1054000014FB706C4242306C414209A803F0F5FA7B
:10541000706C4242306C414207A803F0EEFA012260
:10542000A2EB670209AB53F822200123A3EB670329
:105430000DF11C0C5CF82330D01A7A1009AB53F82C
:1054400022207B105CF82330D11A002901DB0A46A8
:1054500000E04A42002801DB034600E043429A4252
:1054600000DD55E0DDE9021003F0B8FA40010190DB
:1054700002F0D2FE06904FF0000A002524E004EB73
:105480000512DDE9021003F098FA0190002802DB12
:10549000019802E06BE001984042069988420ADCDC
:1054A00004EB0510C06840F0010004EB0511C86072
:1054B0000AF1010A07E004EB0510C06820F00100C2
:1054C00004EB0511C8606D1C4545D8DB0C9882457E
:1054D0001DDD002507E004EB0510C068400004EB6B
:1054E0000511C8606D1C4545F5DBCDF830A0BAEB61
:1054F000680F0CDD08EB480000EB88103F2101FB32
:105500001A00401E4FEA480190FBF1F00B9000BFDB
:1055100009F101090B988145FFF64DAF4FF0000BE3
:10552000D94620E004EB0910007B00F00200C0B176
:10553000CB4514DA04EB09130FCB07AD0FC504EB11
:105540000B1004EB09152ECD2EC004EB091108A891
:1055500029C8079AC1E90235C1E9002000BF0BF153
:10556000010B09F101090C988345DBDB00BF06F153
:1055700030010C9841F8270011B0BDE8F08F2DE9FB
:10558000FF4F91B006460D461F9C00200E9006F17D
:10559000400050F8240056F82410072202FB1100A6
:1055A0000FA941F82400C4F1010106F1400050F8B0
:1055B0002100C4F1010156F82110032202FB110061
:1055C000C4F101010FAA42F8210028680F9948434D
:1055D0006968109A01FB0208A8680F994843E968B6
:1055E000109A01FB020928690F9948436969109ACA
:1055F00001FB0200296B08440D90C4F1010055F82D
:105600002000C4F1010156F8211048430C90C4F168
:10561000010105F1080050F82100C4F1010156F81C
:10562000211048430B90C4F1010105F1100050F81E
:105630002100C4F1010156F8211048430A9055F8A1
:10564000240056F824104843099005F1080050F84A
:10565000240056F824104843089005F1100050F833
:10566000240056F824104843079000200690049028
:1056700037E0C246CB460D9803900020059022E00B
:1056800003985B4652462946009001A801F0F5FEBA
:1056900002980090019B1E9ADDE9130102F070FD53
:1056A000049988400E9908430E90099882440898FE
:1056B000834407990398084403900598401C05907B
:1056C0000498401C049005980328D9DB0C9880446A
:1056D0000B9881440A990D9808440D900698401C37
:1056E000069006980628C4DB0EA8FCF72BFA07469E
:1056F000002F04DB0E98000B15B0BDE8F08F384684
:10570000FAE770B503460C46194622460868156844
:10571000A84201DD012000E000200D681668B542B6
:1057200001DA012500E00025401B4D685668B542AE
:1057300001DD012500E0002505EB40004D685668BD
:10574000B54201DA012500E00025401B70BD30B5EF
:1057500003460C4683EA0401002002E04D1E294066
:10576000401C904201DA0029F8D130BD2DE9F0410A
:1057700005466868FBF7C7FD0446216802222868D1
:1057800005F021FF0646E1680222286805F01BFFAC
:10579000301AE060A1680222286805F014FFA060BA
:1057A00021690222286805F00EFFA168401A2061D5
:1057B000A068801BA060686A70430022A96A02EB9F
:1057C000410100EB4106686A002806DAA168761AF2
:1057D000E0682169E160206100BFE86908B9012043
:1057E00000E00020074644F827600121E86A01EB49
:1057F0004000400007B900E0002144F821002246A3
:105800003946A868FBF7FEFFBDE8F08170B5049C3F
:1058100084B9002A02DA4FF0004501E06FF000453C
:105820000560002B02DA4FF0004501E06FF0004503
:1058300045601EE0002C02DA52425B426442D50F02
:105840006D4205EB6405D60F76427540154495FB15
:10585000F4F54E6A35440560DD0F6D4205EB6405D5
:10586000DE0F764275401D4495FBF4F58E6A354493
:10587000456070BD1FB5C6B047994998401A3D9024
:1058800047994D98401A3C9047994F98401A3B9041
:1058900049994F98401A3A904D994F98401A39902B
:1058A00048994C98401A389048994E98401A379029
:1058B00048995098401A36904C995098401A359013
:1058C0004E995098401A3490DDE938104843349A84
:1058D0003D9901FB1200239035993C984843379A33
:1058E0003A9901FB12002290239808B9229840B1FE
:1058F000359939984843349A3A9901FB120021901E
:1059000001E0012021902199239808443D994843C2
:105910002990DDE9211008443C99484328902199B9
:1059200023980844389948432690DDE9211008441B
:1059300037994843259021992598484320902898E5
:105940004042219948431F9026984042219948435C
:105950001E902199299848431D90229926984143E9
:10596000239A259800FB12101C90239928984143F4
:10597000229A299800FB12101B902599299800FB68
:1059800001F22699289800FB11201A90209828B33C
:1059900020981090002801DB109801E010984042F8
:1059A0001A99C90F494201EB60001A99C90F49427F
:1059B00048401A99014420981190002801DB119861
:1059C00001E01198404291FBF0F12098C00F404255
:1059D00008442099C90F4942484020901F9828B395
:1059E0001F981090002801DB109801E010984042A9
:1059F0001A99C90F494201EB60001A99C90F49422F
:105A000048401A9901441F981190002801DB119811
:105A100001E01198404291FBF0F11F98C00F404205
:105A200008441F99C90F494248401F901E9828B347
:105A30001E981090002801DB109801E01098404259
:105A40001A99C90F494201EB60001A99C90F4942DE
:105A500048401A9901441E981190002801DB1198C2
:105A600001E01198404291FBF0F11E98C00F4042B6
:105A700008441E99C90F494248401E901D9828B3FA
:105A80001D981090002801DB109801E0109840420A
:105A90001A99C90F494201EB60001A99C90F49428E
:105AA00048401A9901441D981190002801DB119873
:105AB00001E01198404291FBF0F11D98C00F404267
:105AC00008441D99C90F494248401D901C9828B3AD
:105AD0001C981090002801DB109801E010984042BB
