:020000040800F2
:1000000050FA00204901000851010008530100087E
:1000100055010008570100085901000800000000C0
:100020000000000000000000000000005B0100086C
:100030005D010008000000005F0100086101000888
:100040006301000863010008630100086301000800
:1000500063010008630100086301000863010008F0
:100060006301000863010008630100081904000827
:1000700039040008590400087904000899040008AC
:10008000B9040008D90400086301000863010008EE
:10009000630100086301000863010008E50500082A
:1000A00063010008630100086301000863010008A0
:1000B0006301000863010008C91900086301000812
:1000C0006301000863010008630100086301000880
:1000D0006301000863010008630100086301000870
:1000E0006301000863010008630100086301000860
:1000F0006301000863010008630100086301000850
:10010000630100086301000863010008630100083F
:10011000630100086301000863010008630100082F
:10012000F9040008190500083D0500085D050008F0
:10013000DFF810D000F022F900480047D935000858
:10014000AFF3008050FA0020064880470648004779
:10015000FEE7FEE7FEE7FEE7FEE7FEE7FEE7FEE777
:10016000FEE7FEE72D190008310100082DE9F041F6
:100170000024061B254671F1000605DA012400273C
:10018000D0EB070067EB0101161E73F1000605DADC
:100190000027D2EB0702012567EB030300F0BCF850
:1001A00086460E4617469C46AC4204D00025D0EB4E
:1001B000050E65EB010624B10020D2EB000760EBD1
:1001C000030C704631463A466346BDE8F081202A6A
:1001D00006DBCB17203A41FA02F043EAE07306E06F
:1001E00041FA02F3D040C2F120029140084319467F
:1001F00070472DE9FE43994615468846074601ACEF
:10020000022942D3002D40D000200290A8F1010025
:100210004FF0FF36009022E000FB057201FB0570F5
:1002200011464A469047002805DC54F82600304421
:1002300044F8260013E060682A4600FB057154F874
:10024000040C00FB057007E00B7890F800C001F883
:1002500001CB00F8013B521E002AF5D1764254F83A
:10026000040C61688842D7DC4B462A463846FFF7C3
:10027000C0FF54F8040C4B46A8EB0001401C00FBE7
:1002800005702A46491EFFF7B4FFBDE8FE8310B58E
:10029000431A934209D28318881803E010F8011D0D
:1002A00003F8011D521EF9D210BD40EA01039B075D
:1002B00003D009E008C9121F08C0042AFAD203E0DB
:1002C00011F8013B00F8013B521EF9D210BD10B5E8
:1002D000002200E0521C835C8C5CA34201D1002B05
:1002E000F8D1D8B2E1B2401A10BDCBB203E0017828
:1002F000994203D0401C521EF9D20020704730B5FD
:1003000004460020034600E05B1C934203D2E05CFD
:10031000CD5C401BF8D030BD2DE9F05F05460020D4
:1003200092469B4688460646814640241BE0284666
:1003300041464746224600F042F853465A46C01A04
:10034000914110D311461846224600F029F82D1A83
:1003500067EB01084F4622460120002100F020F8FB
:1003600017EB00094E41201EA4F10104DFDC4846D2
:1003700031462A464346BDE8F09F0000064C074D33
:1003800006E0E06840F0010394E807009847103465
:10039000AC42F6D3FFF7D0FE4C7101086C71010836
:1003A000202A04DB203A00FA02F100207047914035
:1003B000C2F1200320FA03F3194390407047202A2A
:1003C00004DB203A21FA02F00021704721FA02F3FF
:1003D000D040C2F120029140084319467047000006
:1003E00008B50121042000F08FFF10208DF80300D4
:1003F0004020ADF8000003208DF802006946044853
:1004000000F0B8FA4021024800F041FB08BD0000AE
:10041000000801407047000010B50548006800F072
:100420000F04034844602046FFF7F4FF10BD0000AE
:10043000000002407047000010B505480068C0F396
:1004400003142001024948602046FFF7F3FF10BD66
:10045000000002407047000010B505480068C0F376
:1004600003242002024948602046FFF7F3FF10BD35
:10047000000002407047000010B505480068C0F356
:1004800003342003024948602046FFF7F3FF10BD04
:10049000000002407047000010B505480068C0F336
:1004A00003442004024948602046FFF7F3FF10BDD3
:1004B000000002407047000010B505480068C0F316
:1004C00003542005024948602046FFF7F3FF10BDA2
:1004D000000002407047000010B505480068C0F3F6
:1004E00003642006024948602046FFF7F3FF10BD71
:1004F000000002407047000010B50548006800F099
:100500000F040348001D04602046FFF7F3FF10BDF1
:10051000000402407047000010B506480068C0F3B0
:10052000031420010349091D08602046FFF7F2FF6C
:1005300010BD0000000402407047000010B50648DE
:100540000068C0F3032420020349091D0860204607
:10055000FFF7F2FF10BD00000004024010B50C4888
:100560000068C0F3033434B120030949091D086051
:10057000204600F00FF806480068C0F3034434B189
:1005800020040349091D0860204600F004F810BD4E
:1005900000040240704770470EB50121084600F084
:1005A000B3FE0721002000F0C5F980200190002053
:1005B0008DF8080008208DF8090001208DF80A0048
:1005C00001A800F04BF817208DF8000000208DF8EE
:1005D00001008DF8020001208DF80300684600F04C
:1005E000E7FC0EBD10B5802000F024F801280ED1E4
:1005F00000200949086001200849C1F8980108490C
:10060000C1F8980107480078401C0649087080200E
:1006100000F00AF810BD00009801234200002342B8
:10062000008021420100002001490860704700005D
:1006300014040140014600200022074B1B6803EA16
:100640000102054B14331B680B4013B10AB10120A2
:1006500000E0002070470000000401400021234911
:100660008279002A3AD00A46126803689A430B46F8
:100670001A600A1D126803689A430B1D1A600279FA
:1006800011440A6803681A430A60184A083212685B
:1006900003689A43154B08331A601A1D12680368E1
:1006A0009A43124B0C331A604279102A0ED11A1F4A
:1006B000126803681A430D4B08331A601A1D12683A
:1006C00003681A43094B0C331A600DE0074942795D
:1006D00011440A6803681A430A6005E0027911446C
:1006E0000A6803689A430A607047000000040140EA
:1006F00051B18200A2F1C042126842F001038200AF
:10070000A2F1C042136009E08200A2F1C042126867
:10071000034B1A408300A3F1C0431A6070470000E6
:10072000FEFF0F00D0E901121143C26811430269B4
:1007300011434269114382691143C2691143026A3C
:100740001143426A1143826A1143C26A1143026B28
:10075000114302689200A2F1C04211608168082929
:100760000BD101688900A1F1C041096841F0400244
:1007700001688900A1F1C0410A60416B0968426BC0
:10078000526841EA0211426B926841EA0221426BCF
:10079000928941EA0241426B128A41EA0251426B5C
:1007A000127D41EA0261426B926911430268521C58
:1007B0009200A2F1C0421160C16AB1F5804F1BD115
:1007C000816B0968826B526841EA0211826B926800
:1007D00041EA0221826B128A41EA0251826B127D48
:1007E00041EA0261826B9269114302689200A2F1B0
:1007F000C042C2F8041107E06FF07042016889003E
:10080000A1F1C041C1F804217047000000B597B0C4
:1008100001214FF4F07000F077FD0121080200F093
:1008200053FD03208DF85A004FF48060ADF8580056
:1008300018208DF85B0016A92D4800F09BF80320C6
:10084000ADF8580016A92B4800F094F83020ADF808
:10085000580016A9284800F08DF84FF60370ADF83F
:10086000580016A9244800F085F84FF68070ADF8BE
:10087000580016A91F4800F07DF84FF23F00ADF870
:10088000580016A91D4800F075F83F20ADF8580033
:1008900016A9174800F06EF800200090019008207B
:1008A0000290002003900490059006900420079089
:1008B00000200890099010200A9000200B900D90C5
:1008C0000C900E900F904FF48050109000201190DB
:1008D00012901390CDF850D0CDF854D007A8FFF760
:1008E00021FF01210420FFF703FF17B000BD000026
:1008F000002001400018014000140140001C01408C
:1009000008B50121102000F0FFFC0320ADF8000025
:1009100010208DF8030003208DF80200694604487A
:1009200000F028F80321024800F0B1F808BD0000EB
:100930000010014030B500228B071C0F0F2303FA73
:1009400004F20B4B8C1053F824309343084C8D1059
:1009500044F8253023468C1053F824308C07240F9C
:1009600000FA04F42343024C8D1044F8253030BDC6
:10097000080001402DE9F041024600250026002034
:1009800000230024002791F803C00CF00F0591F814
:1009900003C00CF0100CBCF1000F03D091F802C0A2
:1009A0004CEA050591F800C0BCF1000F31D0146885
:1009B00000202BE04FF0010C0CFA00F3B1F800C05E
:1009C0000CEA03069E4220D183004FF00F0C0CFA74
:1009D00003F7BC4305FA03FC4CEA040491F803C096
:1009E000BCF1280F06D14FF0010C0CFA00FCC2F844
:1009F00014C00AE091F803C0BCF1480F05D14FF0D4
:100A0000010C0CFA00FCC2F810C0401C0828D1D31D
:100A10001460B1F800C0BCF1FF0F34DD5468002051
:100A20002EE000F1080C4FF0010808FA0CF3B1F8C1
:100A300000C00CEA03069E4221D183004FF00F0C48
:100A40000CFA03F7BC4305FA03FC4CEA040491F8E2
:100A500003C0BCF1280F05D100F1080C08FA0CF80E
:100A6000C2F8148091F803C0BCF1480F07D100F11F
:100A7000080C4FF0010808FA0CF8C2F81080401C6E
:100A80000828CED35460BDE8F08141617047016110
:100A90007047000070B5064614484088401E83B277
:100AA00012480088401E82B20021084600F074F906
:100AB0004FF400600E4908604010091F08600024D0
:100AC0000AE0002503E0304600F056FA6D1C0748A6
:100AD0000088A842F7D8641C04484088A042F0D897
:100AE0004FF400600249091F086070BD40EA002011
:100AF000140C014008B50121082000F005FC4FF45A
:100B0000F050ADF8000003208DF8020010208DF8A1
:100B1000030069460148FFF72DFF08BD000C0140A6
:100B200010B500F0B7FDFFF7E5FF00F021F9CF2089
:100B300000F076F9002000F05BF9C12000F058F9D0
:100B4000302000F055F9ED2000F06AF9642000F043
:100B50004FF9032000F04CF9122000F049F98120F0
:100B600000F046F9E82000F05BF9852000F040F93C
:100B7000102000F03DF97A2000F03AF9CB2000F087
:100B80004FF9392000F034F92C2000F031F9002021
:100B900000F02EF9342000F02BF9022000F028F9A3
:100BA000F72000F03DF9202000F022F9EA2000F0C3
:100BB00037F9002000F01CF9002000F019F9C020DE
:100BC00000F02EF91B2000F013F9C12000F028F9E5
:100BD000002000F00DF9C52000F022F9302000F0CF
:100BE00007F9302000F004F9C72000F019F9B72008
:100BF00000F0FEF8362000F013F9082000F0F8F8B5
:100C00003A2000F00DF9552000F0F2F8B12000F084
:100C100007F9002000F0ECF81A2000F0E9F8B620FF
:100C200000F0FEF80A2000F0E3F8A22000F0E0F85F
:100C3000F22000F0F5F8002000F0DAF8262000F0AD
:100C4000EFF8012000F0D4F8E02000F0E9F80F20E0
:100C500000F0CEF82A2000F0CBF8282000F0C8F8E9
:100C6000082000F0C5F80E2000F0C2F8082000F0BF
:100C7000BFF8542000F0BCF8A92000F0B9F84320D8
:100C800000F0B6F80A2000F0B3F80F2000F0B0F83A
:100C9000002000F0ADF8002000F0AAF8002000F0DD
:100CA000A7F8002000F0A4F8E12000F0B9F8002037
:100CB00000F09EF8152000F09BF8172000F098F83F
:100CC000072000F095F8112000F092F8062000F0BF
:100CD0008FF82B2000F08CF8562000F089F83C208B
:100CE00000F086F8052000F083F8102000F080F86E
:100CF0000F2000F07DF83F2000F07AF83F2000F050
:100D000077F80F2000F074F82B2000F089F800200D
:100D100000F06EF8002000F06BF8012000F068F899
:100D20003F2000F065F82A2000F07AF8002000F05B
:100D30005FF8002000F05CF8002000F059F8EF2088
:100D400000F056F8112000F06BF8782002F0AEF8B1
:100D5000292000F065F8002000F08AF801200349FE
:100D600008604FF6FF70FFF795FE10BDA481214289
:100D700010B54FF4805007490860642002F096F8DF
:100D80004FF480500349091F0860322002F08EF8AA
:100D900010BD0000140C01402DE9F04104460D4641
:100DA00016461F461149887A00F03AF8201200F0E2
:100DB0001FF8E0B200F01CF8301200F019F8F0B2A1
:100DC00000F016F80949087B00F02AF8281200F014
:100DD0000FF8E8B200F00CF8381200F009F8F8B299
:100DE00000F006F800F032F8BDE8F08140EA00209B
:100DF00010B504464FF40060074908604010091F11
:100E000008602146054800F0BDFC4FF4006002492F
:100E1000091F086010BD0000140C0140003800409C
:100E200010B504464FF400600649086040100860A1
:100E30002146054800F0A6FC4FF400600149091F57
:100E4000086010BD140C01400038004010B5024984
:100E5000087AFFF7E5FF10BD40EA002070B50546AF
:100E60000C462846FFF7DCFFE0B2FFF7C1FF70BD7C
:100E700010B504462A201E4948812B2088812C2049
:100E8000088134B1012C0FD0022C18D0032C2CD1A6
:100E900020E0F020164908804FF4A0704880082117
:100EA0003620FFF7DBFF21E04FF4A07010490880E7
:100EB000F020488068213620FFF7D0FF16E0F020B0
:100EC0000B4908804FF4A0704880C8213620FFF7F6
:100ED000C5FF0BE04FF4A07005490880F020488062
:100EE000A8213620FFF7BAFF00E000BF00BF10BD09
:100EF00040EA002010B501210148FFF7C6FD10BDF2
:100F00000008014010B510210148FFF7C0FD10BDD9
:100F10000008014010B510210148FFF7B6FD10BDD3
:100F20000008014010B520210148FFF7B0FD10BDB9
:100F30000008014010B520210148FFF7A6FD10BDB3
:100F40000008014008B50121042000F0DDF910205F
:100F50008DF803007120ADF8000003208DF8020029
:100F600069460448FFF706FD71210248FFF78FFD2F
:100F700008BD00000008014010B504464FF40060B1
:100F8000094908604010091F08602112074800F055
:100F9000F9FBE1B2054800F0F5FB4FF400600249AF
:100FA000091F086010BD0000140C0140003800400B
:100FB00070B5002100230F22C47804B3154C2468B7
:100FC00004F4E064C4F5E064210AC1F10403CA40FA
:100FD000447804FA03F184781440214309010E4C4B
:100FE0000678A155047804F01F050124AC4005786B
:100FF0006D11AD0005F1E025C5F8004109E0047868
:1010000004F01F050124AC40044D0678761145F824
:10101000264070BD0CED00E000E400E080E100E05F
:1010200070B50446002534B1012C06D0032C06D03F
:10103000042C08D105E0B02505E0982503E018252B
:1010400001E0302500BF00BF2946552000F002FB1B
:1010500070BD2DE9F0410446802522265E2734B17B
:10106000012C08D0032C0AD0042C10D10BE0402511
:1010700011262F270BE066251B264B2707E0992515
:101080002826712703E0C02533268D2700BF00BF27
:1010900029464F2000F0DEFA2946502000F0DAFA07
:1010A0000021512000F0D6FA3146522000F0D2FA49
:1010B0003946532000F0CEFA2946542000F0CAFAEF
:1010C0009E21582000F0C6FABDE8F08170B50446B4
:1010D000402534B1012C06D0032C06D0042C08D1B5
:1010E00005E0302505E0382503E0502501E06025C6
:1010F00000BF00BF2946562000F0ACFA70BD0000CA
:1011000038B500250121DC2000F0FEF848208DF8DC
:1011100003008020ADF8000003208DF8020069462E
:101120003148FFF727FC10208DF80300C020ADF8F0
:10113000000069462D48FFF71DFCC0212B48FFF732
:10114000A6FC48208DF80300FF20ADF8000069469A
:101150002748FFF70FFC10208DF803004020ADF862
:10116000000069462348FFF705FC40212148FFF7AE
:101170008EFC0C20ADF8000010208DF803006946AD
:101180001D48FFF7F7FB0C211B48FFF780FC00F020
:1011900035F98021122000F05DFA08B1012038BD38
:1011A000322001F083FE0B2000F096F90446732CE8
:1011B00001D00220F3E70A2000F08EF90446762CD5
:1011C00001D00220EBE700250AE00C4A02EB4502C1
:1011D00051780A4A12F8150000F03CFA681C85B2F2
:1011E000A82DF2D30020DAE700080140000C0140EE
:1011F000001C01400018014000100140186F010858
:101200002DE9F0410446E72500260027012C06D0F1
:10121000022C08D0032C0AD0042C10D10BE0E525B9
:101220005A265C270BE0E5255826602707E0E525D0
:1012300084264C2703E0E5259626402700BF00BF03
:101240002946132000F006FA3146012000F002FA88
:101250003946022000F0FEF9BDE8F0812DE9F041A9
:1012600004460425C0268027072C1DD2DFE804F0A1
:101270001C04080C1014180024258026802713E075
:101280001425802680270FE01425C02680270BE038
:1012900014254026402707E014258026C02703E0B8
:1012A0001425A026402700BF00BF29463A2000F0A1
:1012B000D1F93146682000F0CDF93946672000F0B9
:1012C000C9F9BDE8F081000029B1064A526902431C
:1012D000044B5A6104E0034A52698243014B5A614C
:1012E000704700000010024029B1064AD26902434B
:1012F000044BDA6104E0034AD2698243014BDA61AC
:10130000704700000010024029B1064A926902436A
:10131000044B9A6104E0034A92698243014B9A614B
:10132000704700000010024030B500210022002468
:1013300000232D4D6D6805F00C0121B1042905D065
:10134000082923D105E0294D056022E0274D0560DD
:101350001FE0254D6D6805F47012234D6D6805F48E
:101360008034022505EB92421CB9214D554305609E
:101370000BE01D4D6D6805F400351DB11C4D554346
:10138000056002E0194D5543056002E0174D056008
:1013900000BF00BF144D6D6805F0F0010909154D3F
:1013A0006B5C0568DD4045600F4D6D6805F4E061DC
:1013B000090A104D6B5C4568DD4085600A4D6D681B
:1013C00005F46051C90A0B4D6B5C4568DD40C56092
:1013D000054D6D6805F44041890B074D6B5CC56890
:1013E000B5FBF3F5056130BD0010024000127A0034
:1013F00000093D005D0000206D00002008B50121BE
:101400001020FFF781FF4020ADF8000048208DF844
:10141000030003208DF8020069460B48FFF7AAFA83
:1014200040210948FFF733FB1020ADF800008DF88C
:10143000030069460448FFF79DFA10210248FFF7B0
:1014400026FB00F07FF808BD0010014010B53220E7
:1014500001F052FD01200B4908600B49C1F89001D1
:10146000322001F049FD0020064908390860322089
:1014700001F042FD00200449C1F89801322001F03A
:101480003BFD10BD980122420000224270B50024AD
:1014900000F04AF8082515E0322001F02DFD01206A
:1014A0000B4908606006040E0A48D0F8180108B11C
:1014B000601CC4B2322001F01FFD00200449086006
:1014C000681EC5B2002DE7DC00F03CF8204670BD78
:1014D000900122420000224270B50446002500F02F
:1014E00043F8422000F074F8642001F005FD204626
:1014F00000F06EF8642001F0FFFC00F04FF864206B
:1015000001F0FAFC00F030F8432000F061F86420AC
:1015100001F0F2FCFFF7BAFF0546FFF797FF00F076
:101520003DF8284670BD000008B54020ADF8000029
:1015300048208DF8030069460148FFF71BFA08BDF3
:101540000010014008B54020ADF8000010208DF8D3
:10155000030003208DF8020069460248FFF70AFAEB
:1015600008BD00000010014010B5012009490860C5
:101570000949C1F89001322001F0BEFC0020054964
:101580000860322001F0B8FC00200349C1F8900146
:1015900010BD0000980122420000224210B5002038
:1015A00009490860322001F0A7FC01200749C1F871
:1015B0009001322001F0A0FC012003490860322094
:1015C00001F09AFC10BD0000980122420000224266
:1015D00070B5044600261BE004F0800018B101201D
:1015E0001A49086002E00020184908606006040EED
:1015F000322001F081FC01201449083908603220B2
:1016000001F07AFC00201249C1F89001701CC6B2AA
:10161000082EE1DBFFF788FF322001F06DFC01208E
:101620000A4908390860322001F066FC0848D0F801
:10163000180108B1012500E0002500200349083900
:101640000860FFF77FFF284670BD00009801224226
:101650000000224270B505460C460026FFF784FFC5
:101660004220FFF7B5FF00B10126642001F044FCE1
:101670002846FFF7ADFF00B10126642001F03CFCD5
:101680002046FFF7A5FF00B10126FFF787FF304690
:1016900070BD000000B587B001210920FFF734FEBE
:1016A0004FF42040ADF8040003208DF80600182008
:1016B0008DF8070001A91C48FFF75CF94FF4804042
:1016C000ADF8040048208DF8070003208DF80600CF
:1016D00001A91548FFF74EF901218803FFF704FE21
:1016E0000020ADF808004FF48270ADF80A00002029
:1016F000ADF80C00ADF80E00ADF810004FF400701E
:10170000ADF812000020ADF81400ADF81600072067
:10171000ADF8180002A9054800F016F801210348A9
:1017200000F006F807B000BD000C01400038004092
:1017300021B1028842F04002028004E002884FF6A4
:10174000BF731A400280704710B50022028802F46D
:1017500041520B884C8823438C882343CC882343F5
:101760000C8923434C8923438C892343CC8923430D
:101770001A430280838B4FF2FF74234083830B8ACA
:10178000038210BD024600BF108900F0020000284D
:10179000FAD0918100BF108900F001000028FAD032
:1017A0009089C0B27047000010B504462146054834
:1017B00000F088FA00BF8021024800F009FA0028F2
:1017C000F9D010BD0044004010B50446214605483C
:1017D00000F078FA00BF8021024800F0F9F90028F3
:1017E000F9D010BD004C004070B50446002504E05F
:1017F000605DFFF7D9FF681CC5B2605D0028F7D1B6
:1018000070BD70B50446002504E0605DFFF7DCFFA5
:10181000681CC5B2605D0028F7D170BD10B500F03E
:1018200001F810BD0CB5002001900090334800680D
:1018300040F480303149086000BF3048006800F44F
:10184000003000900198401C0190009818B9019850
:10185000B0F5A06FF1D12948006800F4003010B154
:101860000120009001E0002000900098012843D161
:101870002348006840F010002149086008460068CD
:1018800020F0070008600846006840F00200086089
:101890001A48406819494860084640684860084648
:1018A000406840F4806048600846406820F47C103E
:1018B00048600846406840F4E81048600846006800
:1018C00040F08070086000BF0C48006800F00070B5
:1018D0000028F9D00948406820F003000749486013
:1018E0000846406840F00200486000BF0348406876
:1018F00000F00C000828F9D10CBD000000100240D7
:1019000000200240042808D14FF0E021096941F08D
:1019100004014FF0E022116107E04FF0E021096976
:1019200021F004014FF0E0221161704710B5134817
:10193000006840F0010011490860084640681049FD
:1019400008400E494860084600680E4908400B49A7
:1019500008600846006820F4802008600846406857
:1019600020F4FE0048604FF41F008860FFF756FF28
:101970004FF000600449086010BD000000100240F4
:101980000000FFF8FFFFF6FE08ED00E010B504468A
:101990006FF00400FFF7B6FFE11704EB5171C1F3DC
:1019A000C701074A11701046007800EB4001C1EBF7
:1019B000C0104FF6FF7101EAC0000249088010BD57
:1019C000020000200400002010B50121084800F0AA
:1019D0001EF838B10748017807A000F04DFA002042
:1019E000044908700121024800F00EF810BD000003
:1019F000000800405C0000206672616D653A256455
:101A00006670730D0A000000CA430282704730B549
:101A10000246002000230024158A05EA0103958967
:101A200005EA010413B10CB1012000E0002030BD33
:101A300000B585B00121C804FFF756FC0121102034
:101A4000FFF762FC4FF48060ADF8100003208DF8C2
:101A5000120018208DF8130004A91548FEF78AFF1C
:101A60004FF40060ADF8100048208DF813000320FB
:101A70008DF8120004A90E48FEF77CFF4FF41650B3
:101A800000900020ADF80400ADF80600ADF80800A5
:101A90000C20ADF80A000020ADF80C00694605489E
:101AA00000F0A4F80121034800F048F805B000BD9B
:101AB00000100140004C004000B585B001214804F1
:101AC000FFF712FC01210420FFF71EFC0420ADF8F3
:101AD000100003208DF8120018208DF8130004A9BF
:101AE0001448FEF747FF0820ADF8100048208DF895
:101AF000130003208DF8120004A90E48FEF73AFFE8
:101B00004FF4E13000900020ADF80400ADF806007D
:101B1000ADF808000C20ADF80A000020ADF80C006C
:101B20006946054800F062F80121034800F006F814
:101B300005B000BD000801400044004021B1828989
:101B400042F40052828104E082894DF6FF731A400C
:101B50008281704700B585B0012144F20400FFF78F
:101B6000D3FB4FF4E13001900020ADF810000C20C1
:101B7000ADF80E000020ADF80C00ADF80A00ADF88D
:101B8000080001A9104800F031F84FF40070ADF8DA
:101B9000000003208DF8020018208DF8030069462C
:101BA0000A48FEF7E7FE4FF48060ADF8000004201D
:101BB0008DF8030069460548FEF7DCFE0121024866
:101BC000FFF7BCFF05B000BD003801400008014030
:101BD00002460020B1F5007F00D100BF13880B4002
:101BE0000BB1012000E00020704700002DE9F04714
:101BF00086B005460E460024A24600BFA146002737
:101C0000B08900B100BF2F462C8A4CF6FF7004400B
:101C1000F08804432C82AC894EF6F3100440B0885F
:101C200031890843718908430443AC81AC8A4FF67B
:101C3000FF400440B0890443AC8201A8FFF774FB65
:101C40001F48874202D1DDF810A001E0DDF80CA0AA
:101C5000A88900F4004040B10AEBCA0000EB0A106A
:101C600031684900B0FBF1F807E00AEBCA0000EB6D
:101C70000A1031688900B0FBF1F86420B8FBF0F07D
:101C800004012009642101FB1089A88900F40040A7
:101C900040B1322000EBC900B0FBF1F000F00700CA
:101CA000044308E0322000EB09106421B0FBF1F09E
:101CB00000F00F0004432C8106B0BDE8F08700005F
:101CC00000380140C1F30802828070472DE9FC5FB3
:101CD00004460D46DFF8C0804FF000090AF02CF9E9
:101CE000814601230022114648460AF0DFF90AF036
:101CF000D5F8824629A0016850460AF020FA2A4603
:101D0000214650460AF01DFA04FB05F2254B4146D8
:101D100050460AF006FA514648460AF015FA0746B8
:101D200017B9FFF7F7F801E0FFF704F939461EA0ED
:101D300000F0A2F850460AF0CAF8064621E0304604
:101D40000AF050FD019030460AF049FD83460198A3
:101D50000AF03EF85A46014600901AA000F08CF8AE
:101D60001EA15846FEF7B3FA08B900F031FF5846F5
:101D7000FFF73AFD5846FFF744FD30460AF035FDBF
:101D80000646002EDBD150460AF099F848460AF084
:101D900019F90020BDE8FC9F806F10685938303079
:101DA00000000000E1BE0008CAB6B1F0B5C4B6FE3E
:101DB000CEACC2EBB8F6CAFDCEAA203D2025640DFC
:101DC0000A000000CAB6B1F0CEAA20257320BDE1FA
:101DD000B9FBCAC720222573220D0A00736F730056
:101DE00070B504460D4604FB05F1012001F03AFDF3
:101DF00006462EB104FB05F20021304601F053FDEA
:101E0000304670BD10B504462146012001F018FD92
:101E100010BD10B504462146012001F023FD10BD80
:101E200070B504460D46164632462946204601F056
:101E30002DFD70BD70B504460D4616463246294646
:101E4000204601F030FD70BD70B504460D462A46AF
:101E50002146012001F032FD70BD00000FB40246A2
:101E600010B504A9034B039800F026F810BC5DF8E8
:101E700014FB0000D13000080FB4054B10B503A9C6
:101E8000044A029800F018F810BC5DF814FB00003A
:101E9000D13000087800002002E008C8121F08C1F5
:101EA000002AFAD170477047002001E001C1121FDB
:101EB000002AFBD1704700002DE9FF4F8DB00F467F
:101EC0000546002606E025280BD0DDE90F129047D5
:101ED0006D1C761C28780028F5D111B03046BDE87D
:101EE000F08F0024A246A1460122E94900E0044304
:101EF00015F8013F203B02FA03F00842F7D1287899
:101F00002A2810D06FF02F022878A0F1300109297B
:101F100014D80AEB8A0102EB410144F0020400EB01
:101F2000010A6D1CF0E701CF5FEA000A03D544F413
:101F30000054CAF1000A44F002046D1C28782E28CF
:101F400017D115F8010F44F004042A280ED06FF0C1
:101F50002F022878A0F1300109290AD809EB89015C
:101F600002EB410100EB01096D1CF2E757F8049BFD
:101F70006D1C28786C280FD006DC4C2817D06828F8
:101F80000DD06A2814D104E0742810D07A280FD11B
:101F90000DE044F400140AE044F4801401E044F439
:101FA00040146978814202D104F580146D1C6D1CC7
:101FB00028786E281ED00CDC632830D004DC002882
:101FC0008BD0582811D19FE0642867D069280CD1A4
:101FD00064E073282DD004DC6F2872D0702804D1FF
:101FE00094E075286ED078286DD0DDE90F12904707
:101FF000761C4BE1C4F30250022806D0032809D016
:10200000042801CF09D0066040E101CFF117C0E9F3
:1020100000613BE101CF068038E1067036E117F838
:10202000040B8DF8000000208DF80100EB46012024
:1020300003E057F804BB4FF0FF3061074FF0000199
:1020400002D40DE008F10101884649450FDA8045C8
:10205000F8DB1BF808100029F4D108E008F10101B1
:1020600088468142FADB1BF808100029F6D1DDE929
:102070000F23AAEB08008146214600F031F93044D5
:1020800000EB080604E0DDE90F121BF8010B904796
:10209000B8F10108F7D221464846F2E00A21C4F31C
:1020A00002524FF0000B0891022A04D001CFC11751
:1020B000032A09D00AE0FF1D27F00707F7E802010D
:1020C00008E02CE01EE01FE000B2C117042A01D195
:1020D00040B2C117021E71F1000206DA0023D0EBF4
:1020E000030063EB01012D2202E0220504D52B221F
:1020F0008DF82420012203E0E20701D02022F7E737
:10210000904653E00A210BE0102109E010214FF026
:10211000000B44F004044FF00809089103E0082183
:102120004FF0000B0891C4F30252022A04D001CFF1
:102130000021032A06D006E0FF1D27F00707F7E875
:10214000020103E080B2042A00D1C0B24FF00008BF
:1021500022072BD52A78702A07D0DDF820C08CF012
:10216000100C5CEA0B0C05D00EE040228DF8242008
:10217000012208E050EA010306D030238DF8243014
:102180008DF8252002229046089B83F0080353EA2D
:102190000B030BD150EA010201D1620706D53022B0
:1021A0008DF824204FF00108A9F101092A78582A56
:1021B00004D038A20B9208AA0A920BE03AA2F9E7DF
:1021C0005B46089AFEF7A8F80B9B9B5C0A9A521E86
:1021D0000A92137050EA0102F2D10A98ADEB0000A6
:1021E00000F1200B600702D524F4803401E04FF0A9
:1021F0000109D94502DDA9EB0B0000E0002000EB4E
:102200000B0141440890AAEB010AE00306D4DDE982
:102210000F232146504600F063F806444FF00009B2
:1022200008E009A911F80900DDE90F12904709F14A
:102230000109761CC145F4DBE0030CD5DDE90F2371
:102240002146504600F04CF8064404E0DDE90F1248
:1022500030209047761C0899481E08900029F5DC2C
:1022600008E00A980A990078491C0A91DDE90F12E2
:102270009047761CBBF10001ABF1010BF1DC21466C
:102280005046DDE90F2300F019F806446D1C21E6E5
:10229000092801003031323334353637383961623C
:1022A0006364656600000000303132333435363700
:1022B0003839414243444546000000002DE9F041D1
:1022C000044600251E461746880404D405E0394616
:1022D0002020B0476D1C641EF9D52846BDE8F0816A
:1022E0002DE9F041044600251E469046C80301D55D
:1022F000302700E02027880404D505E04146384611
:10230000B0476D1C641EF9D52846BDE8F081014632
:1023100001F1600070472DE9F047064606F15C04C4
:102320000621304600F0E2FE2168081A20600121F3
:10233000304600F0DBFE216808442060D4F80090AD
:1023400000BF307800F0010010B9B9F1070F02D2D8
:102350000020BDE8F0870121304601F0D1FA824625
:102360000722494600F06AFD054605B157E0022103
:10237000304601F0C5FA82460722494600F05EFD6C
:102380000546022D00D04AE00321304601F0B8FA9C
:1023900082460722494600F051FD0546022D00D035
:1023A0003DE00421304601F0ABFA8246072249465F
:1023B00000F044FD054605B131E00021304600F053
:1023C00095FE07460121304600F090FE804608F158
:1023D000010007EB500161610221304600F086FEEA
:1023E00007EB08010144E1600321304600F07EFE66
:1023F000E168084460606168A1600521304600F032
:1024000075FE80460421304600F070FE616801448C
:1024100008F1010001EB50012161402099E7002003
:1024200097E710B50446206B30B14FF0FF31206BB9
:102430000AF0E1F9002020632046FFF7E3FC10BD1D
:1024400070B504460D4600BFE16929440846E161C4
:1024500000BF58B9002D09DCA06910B12046A16960
:102460008847206A10B92046FFF7DBFF70BD2DE9D1
:10247000F04180460C462146404600F0E6FBD8F885
:102480003050E06A08B9E86818B9A8682062AC6002
:1024900004E0E868006A2062E8680462E06A18B94B
:1024A0006868401C686002E0E86800B9EC60264695
:1024B0000127394606F11C0000F0DBF920B9002F96
:1024C00002DC304600F0E2F900BFBDE8F0812DE902
:1024D000F041064688461746002506E069000120BF
:1024E0008840B84200DB02E06D1C042DF6DB00BF23
:1024F000002411E006F1340000EBC5004068041E22
:1025000009D006F1880050F82500401C06F188012A
:1025100041F8250002E06D1E002DEBDC00BF8CB100
:1025200006F1340000EBC500216A41600020206202
:1025300006F1340050F83500401E06F1340141F830
:10254000350009E034210120FFF74AFC0446D6F8A3
:102550008400401CC6F88400A4F800800120206399
:1025600000206061E0627069A062002F0FDD781EBC
:10257000A0606068B84213D2E06810B1E068FFF76D
:1025800041FC67603846FFF744FCE06008E0E06823
:1025900010B1E068FFF736FC0020E0606060A060EA
:1025A0002046BDE8F0812DE9F04107460C464FF08A
:1025B00000084AE0D4F82080E06948B14FF0FF31CC
:1025C00004F11C0000F055F910B1002020623BE03E
:1025D000606810B90020E060A060606A98B14FF0B8
:1025E000FF31606A00F045F900B100BF606A8168A0
:1025F0003846FFF7D8FF0020616A8860606A00F003
:102600007BF900206062002507E06A00012090400D
:102610006168814200D202E06D1C052DF5DB00BF30
:10262000052D06D1E068FFF7EDFB0020E06060605B
:10263000002507F1340000EBC5063068401C30600F
:1026400070682062746000BF4446002CB2D1BDE8BF
:10265000F08110B540F628310120FFF7C1FB044698
:10266000204607F08DFA204610BD00002DE9F0430A
:1026700089B00446884615464FF0000900200890AE
:10268000079040F614300059092803DBD4F8200BDA
:10269000092803DA002009B0BDE8F08300200346D2
:1026A000224608A9009007A802F0E6FE064600BFF1
:1026B0002C4800680E280BDBD4F8200BCDE900066F
:1026C00040F614300359284A28A13048FFF7C6FBCA
:1026D00000BF3146079A002000E0401C8842FCDB26
:1026E000002009E002EB0017002300E05B1CD7F894
:1026F0000CC09C45FADC401C8842F3DB00BF032E73
:1027000023DBD5E90112E86801F002FE074604A8C0
:1027100002F044FAD5E901103346CDE90071029088
:1027200004A92046079A07F038FA0598002805DD25
:102730002A46414604A801F0ABFF814604A801F0F7
:1027400091FF3846FFF75EFB00BF079810B107986E
:10275000FFF758FB089810B10898FFF753FB48465D
:1027600099E7000024000020BCCB000825733A2024
:1027700025647825642066696E646572732C202553
:10278000642063656E746572733A0A0074000020F9
:1027900038B5044600BF1248006801280ADBD4F8A7
:1027A000240B009040F6183003590E4A0EA116482B
:1027B000FFF754FB00BFD4F8100B18B1D4F8100B7E
:1027C000FFF720FB40F61C30005920B140F61C31C9
:1027D0000859FFF717FB2046FFF714FB38BD000030
:1027E000240000204ECB000825733A206D6178202C
:1027F00066696E646572206C696E6573203D202584
:10280000647825640A000000740000202DE9F0417E
:1028100005460E46174606EB460105F5316000EB0E
:102820008104D4E9010188420CDBA0684000A0606B
:10283000A268521CA26002EB820291002068FFF79E
:1028400003FB20606268511C616002EB8201226818
:1028500002EB810014223946FFF7E2FA0020BDE8BE
:10286000F081002240F614310A504FF432610A50D0
:102870007047024613680B441846136070470246BF
:1028800013680B44184613607047704710B5044630
:10289000606A30B14FF0FF31606A09F0ACFF002090
:1028A0006062A06910B1A069FFF7ACFA606820B15E
:1028B000E06810B1E068FFF7A5FA2046FFF7A2FA3A
:1028C00010BD70B505460C46214605F11C00FFF70A
:1028D000D6FF20B9002C02DC2846FFF7D7FF70BDD9
:1028E00010B510210120FFF77BFA04460121204694
:1028F000FFF7C5FF204610BD70B50546AC6807E080
:10290000266A00202062411E2046FFF7DAFF344687
:10291000002CF5D10020A8602846FFF773FA70BD9F
:102920002DE9FE4F064689464946684600F040F8C4
:1029300007460025012F07D11B4900980A56284653
:102940006D1C46F820202CE0002F2ADD002420E01A
:10295000164810F81400144911F9008041460098F7
:1029600000F0E0FB04EB0801104A515C80EA010A28
:102970002146019800F0D6FB8AEA000A02988AEA0A
:10298000000ABAF1000F03D128466D1C46F820401A
:10299000641C0F2CDCDBBD4203DA4FF0FF30BDE8D6
:1029A000FE8F2846FBE700004EC900082FC900082B
:1029B0002DE9F04705460C46206828602168084646
:1029C00000F0BEFB81464946206800F0B9FB616813
:1029D00080EA01074846616800F0B2FBA16880EA1E
:1029E000010827B13946404600F08AFB00E000208C
:1029F00068606968206800F0A3FB7840A86003263F
:102A000000E0761E002E04DD701E55F82000002820
:102A1000F7D03046BDE8F08770B503460D46002478
:102A2000002107E001208840284010B12048405C88
:102A30004440491C0F29F5DB1C600024002111E0F3
:102A400000220CE0052000FB01260120B0402840B8
:102A500020B102EB4200164E305C4440521C052A65
:102A6000F0DB491C0329EBDB5C600024002111E052
:102A700000220CE0032000FB01260120B04028408A
:102A800020B102EB82000A4E305C4440521C032A03
:102A9000F0DB491C0529EBDB9C60186818B9586805
:102AA00008B9986808B1012070BD0020FCE700005B
:102AB0002FC90008F0B587B007463C68214604A836
:102AC000FFF7AAFF10B9002007B0F0BD04A901A8C4
:102AD000FFF726FF0546002D12DD002606E001A8BF
:102AE00010F82610012088404440761CAE42F6DBE8
:102AF000A00A00F008F8A04202D13C602846E3E7B3
:102B00004FF0FF30E0E7014601F00100404240F2A3
:102B100037521040C1F34002524240F66E231A4031
:102B20005040C1F38002524241F2EB131A40504030
:102B3000C1F3C00252425B001A405040C1F3001280
:102B4000524244F29B231A40504070472DE9F04115
:102B500005462F683C0B072C14D3282C12D8E01FF5
:102B6000164A52F820100422384603F0B0FE0646FA
:102B7000042E07DAE01F114951F820002860304682
:102B8000BDE8F081002414E0E01DB0EB173F0FD04A
:102B90000A4850F824100422384603F098FE0646EE
:102BA000042E05DA054850F8240028603046E7E78F
:102BB000641C222CE8D34FF0FF30E1E768C900081D
:102BC00010B540210148FDF762FF10BD000801402B
:102BD00010B540210148FDF758FF10BD0008014025
:102BE0002DE9F04106460D4606F1600426E0206816
:102BF0000088298888420CD120688068A9688842AA
:102C000007D1D5E902212368D868FDF778FB00B920
:102C100017E0A86A2168896A401AB0F57A6F0AD964
:102C20002068076A00202168086230462168FFF7A3
:102C3000BAFC276002E0206800F120042068002828
:102C4000D5D100BF2068BDE8F0812DE9F0470646E8
:102C50000D46F06D00284BD029463046FFF7C0FFE7
:102C60000446ACB9A868421C29883046FFF72FFCFF
:102C70000446D5E90221E068FFF7D2F8A86AA0F57A
:102C8000FA60A0626FF00200E062306E206234668B
:102C9000A86AA16A471AA86AA062B7F57A7F01D22A
:102CA000012000E000208146B7F5FA6F01D3012032
:102CB00000E000208246E06A012101EBE078B8F1F3
:102CC000000F02D1B9F1000F02D0BAF1000F03D00A
:102CD0006FF00200E06208E0B8F1000F02D1B9F134
:102CE000000F02D0E06A401CE062E06AE86201E0A6
:102CF0000020E862BDE8F08730B501460A6A4868FE
:102D0000904201D2C86A08B9486830BD8D68886AA7
:102D1000C0EB451402FB04F3C86AB3FBF0F3DB0815
:102D20009A4205D9D21A4868904201D21046ECE77F
:102D3000486808624868E8E770B5394800780028B4
:102D40006CD00120FEF794F8EF2340F23F120021EF
:102D50000846FEF721F800203249086080213248F9
:102D6000FDF793FE80213048FDF791FE80212E482B
:102D7000FDF78BFE01202D49C1F8880180212A48EA
:102D8000FDF785FE0026002444E080212648FDF75B
:102D90007CFE27480068C5B280212348FDF777FEF6
:102DA0004FF6FF7000EA052580211F48FDF76DFEF4
:102DB0001F480068C0B2054380211B48FDF767FE2D
:102DC000B5F58A4F05DD4FF6FF75FF2019490870EC
:102DD00003E00025002017490870EF2C0CD9B4F54A
:102DE000A07F12D3A4F5A0704FF4A071B0FBF1F254
:102DF00001FB1200EF2808D80E4800780E498855CC
:102E0000761C2846FEF7B8F803E04FF6FF70FEF791
:102E1000B3F8641CB4F5963FB7D300BF70BD000093
:102E20000100002088012242000C014000002242E3
:102E3000081C014000000020806F106830B5034678
:102E400003FB02F0012505EB4000B0FBF1F0C01ED2
:102E5000C0F34704D01EA04201D8A81E30BD2046B2
:102E6000FCE770B504460D460021402D02D104F167
:102E7000740101E0012070BD00BF09B1042A01DB2B
:102E80000120F8E72BB9012696400868B043086096
:102E900009E0012B05D101269640086830430860FF
:102EA00001E00120E7E70020E5E700000146114AC4
:102EB00012884A434FF0E0235A6100229A611A4671
:102EC000126942F001021A6100BF4FF0E02210695E
:102ED00000F001021AB100F48032002AF5D04FF060
:102EE000E022126922F001024FF0E0231A61002271
:102EF0009A617047040000200146114A12784A4343
:102F00004FF0E0235A6100229A611A46126942F09A
:102F100001021A6100BF4FF0E022106900F00102C7
:102F20001AB100F48032002AF5D04FF0E022126985
:102F300022F001024FF0E0231A6100229A617047EB
:102F40000200002038B5044600BF2648006801286A
:102F500005DB254A25A12E48236FFEF77FFF00BF22
:102F600000BF20480068012807DBA06F00901E4AC0
:102F700028A12748636FFEF771FF00BF00BF194803
:102F80000068012808DBD4F880000090164A2FA1C1
:102F90001F48E36FFEF762FF00BF00BF11480068E3
:102FA000012806DB104A37A11948D4F88430FEF70F
:102FB00055FF00BF002511E000BF0A480068012846
:102FC0000ADB04F1880050F825002B46064A36A19A
:102FD00000900F48FEF742FF00BF6D1C052DEBDB94
:102FE00038BD00002400002014C9000825733A20D1
:102FF00073796D626F6C207365747320616C6C6F94
:1030000063617465642020203D20252D34640A000E
:103010007400002025733A20202020207363616E05
:103020006E65722073796D7320696E2075736520EB
:103030003D20252D34640972656379636C656420D5
:10304000203D20252D34640A0000000025733A201D
:1030500020202020696D6167652073796D73206978
:103060006E207573652020203D20252D3464097263
:10307000656379636C656420203D20252D34640AE6
:103080000000000025733A2073796D626F6C732025
:10309000616C6C6F636174656420202020202020A7
:1030A0003D20252D34640A0025733A20202020205D
:1030B0002072656379636C65645B25645D20202004
:1030C00020202020203D20252D34640A000000000F
:1030D000C2B2054B1A8000BF034A121F128802F0C9
:1030E0004002002AF8D070470438014002461078A8
:1030F000401A00F00F03101D50F823007047000025
:1031000002460AB900207047044880560F30034B2E
:103110005B56C01A024B185CF5E700004EC9000868
:103120002FC9000802460AB900207047024880569D
:103130000844024B185CF8E74EC900082FC9000884
:10314000024602B109B90020704704488056034B7B
:103150005B561844024B185CF6E700004EC90008A5
:103160002FC900082DE9F04F89B007468B469146DC
:103170000020C7F80C08C7F80808C7F8040807F2C9
:10318000044A07F104084A48089007900690059001
:103190000490039002900190002403E001A800F045
:1031A00089F8641C042CF9DBB9F5806F01DD4FF45C
:1031B00080695E46002416E0032000EB8400305C4A
:1031C0000006022101EB8401715C40EA014001210B
:1031D00001EB8401715C40EA012016F824100843D9
:1031E00048F82400641CB4EBA90FE5DB09F00300E8
:1031F000A8B116F8240048F8240001250AE045EAA1
:103200008400305CE900884058F82410084448F8ED
:1032100024006D1C09F00300A842F0DC641CC4F516
:1032200080718A0008EB84000021FEF703FE002471
:1032300018E000250AE001A850F82500611958F8A7
:103240002110084401A941F825006D1C082DF2DB6E
:1032500001A800F02FF80AEB8400202201A9FEF754
:10326000DFFD0834FF2CE4DD002418E000250AE02F
:1032700001A850F8250061195AF82110084401A945
:1032800041F825006D1C082DF2DB01A800F012F8B2
:103290000AEB8400202201A9FEF7C2FD0834FF2CAE
:1032A000E4DD384600F087F809B0BDE8F08F000093
:1032B000B979379E0146002055E0421C02F0070212
:1032C00051F82220294B1B5C9A4051F820305A407B
:1032D00041F82020C21C02F0070251F8222051F8C8
:1032E00020301344C21C02F0070241F82230421C75
:1032F00002F0070251F82230821C02F0070251F856
:1033000022201344421C02F0070241F82230401CE4
:10331000421C02F0070251F82220144B1B5CDA40D9
:1033200051F820305A4041F82020C21C02F0070218
:1033300051F8222051F820301344C21C02F0070239
:1033400041F82230421C02F0070251F82230821C60
:1033500002F0070251F822201344421C02F0070237
:1033600041F82230401C0828A7DB70475EC90008DE
:103370002DE9F04180460D4600BF404600F00DF8B3
:103380000446B4FBF5F005FB1046A71B7819401E58
:10339000B842F2D33046BDE8F08110B5044620684B
:1033A00010B9204600F007F82068401E211D20605B
:1033B00051F8200010BD2DE9F041044604F204400C
:1033C000261DD4F80428D4F80CC80CF1010CD4F84C
:1033D000088808EB0C05C4F80CC8002175E050F80B
:1033E000213082EA423801F1800C50F82CC008EB01
:1033F0000C02C3F3870C50F82CC09444AC446746CD
:1034000040F821C0C7F3872C50F82CC09C44654677
:1034100046F821C001F1010C614650F82C3082EAD7
:10342000921801F1800C50F82CC008EB0C02C3F389
:10343000870C50F82CC09444AC44674640F821C037
:10344000C7F3872C50F82CC09C44654646F821C031
:1034500001F1010C614650F82C3082EA820801F13A
:10346000800C50F82CC008EB0C02C3F3870C50F80A
:103470002CC09444AC44674640F821C0C7F3872C65
:1034800050F82CC09C44654646F821C001F1010C5F
:10349000614650F82C3082EA124801F1800C50F855
:1034A0002CC008EB0C02C3F3870C50F82CC09444DA
:1034B000AC44674640F821C0C7F3872C50F82CC0B5
:1034C0009C44654646F821C0491C802987DB802141
:1034D00075E050F8213082EA4238A1F1800C50F8B2
:1034E0002CC008EB0C02C3F3870C50F82CC094449A
:1034F000AC44674640F821C0C7F3872C50F82CC075
:103500009C44654646F821C001F1010C614650F823
:103510002C3082EA9218A1F1800C50F82CC008EBF4
:103520000C02C3F3870C50F82CC09444AC4467469B
:1035300040F821C0C7F3872C50F82CC09C44654646
:1035400046F821C001F1010C614650F82C3082EAA6
:103550008208A1F1800C50F82CC008EB0C02C3F3D8
:10356000870C50F82CC09444AC44674640F821C006
:10357000C7F3872C50F82CC09C44654646F821C000
:1035800001F1010C614650F82C3082EA1248A1F199
:10359000800C50F82CC008EB0C02C3F3870C50F8D9
:1035A0002CC09444AC44674640F821C0C7F3872C34
:1035B00050F82CC09C44654646F821C0491CFF29A0
:1035C00087DDC4F80858C4F804284FF4807CC4F898
:1035D00000C0BDE8F0810000FDF792F9FEF7BAFAED
:1035E0004820FEF7D3F9FCF7FBFEF024F02500BFDE
:1035F000FEF79CF9FDF794FA4FF6FF70FDF74AFAD3
:103600001F20FDF747FAFDF77BFD40F2DC50FFF786
:103610004DFC0020FDF7F4FD0220FDF71AFD02200D
:10362000FDF7FEFC0220FDF751FD0020FDF716FE20
:10363000FCF7B2FF00201A490860FDF72BFA40F2B0
:10364000DC50FFF733FCFEF7F3F9FEF735FAFEF72F
:10365000EFF9FDF777FCFDF7D9F8002000F05AF8F4
:10366000012000F057F800BF19E0FDF743FCC82027
:10367000FFF71CFCFDF746FCFDF754FCFFF7A0FA32
:1036800029462046FEF722FB8020FCF7CDFF0020D4
:10369000044908706420FFF709FCFFF74DFBE4E7DD
:1036A0008C012242010000202DE9F04104460E4623
:1036B0001548005D38B91448183801682046884715
:1036C0000120BDE8F081114850F82400B04219D91A
:1036D0000F4850F82400B6FBF0F10B48083850F8BA
:1036E000240030F81120002508E00023064808389F
:1036F00050F824004F1920F817306D1C9542F4DB68
:103700000020DEE70220DCE7200000200CC90008D2
:1037100004C9000810B504460C4951F824104A00A9
:103720000B4951F82400002100F0BDF8094951F877
:1037300024200749083951F82400002100F0B3F88B
:10374000012103480830015510BD0000FCC80008E5
:10375000180000200CC900082DE9F04704460F4668
:103760000025A9462348005D20B922481838016881
:10377000204688471FB94FF0FF30BDE8F0871E484C
:1037800050F82400B7FBF0F61B4850F82400B7FBB4
:10379000F0F100FB117000B1761C184850F82400BD
:1037A000451E22E01348083850F8240030F8150070
:1037B00010B909F1010901E04FF00009B14513D139
:1037C0004FF0000809E00B48083850F8240005EBDA
:1037D000080220F8126008F10108B045F3D306484A
:1037E00050F824006843C8E76D1E002DDADA4FF068
:1037F000FF30C2E72000002004C90008FCC8000810
:1038000010B501460023002207E00B4850F82100C4
:1038100030F8120000B15B1C521C084850F821001F
:103820009042F2D864205843044C54F82140B0FB35
:10383000F4F0C0B210BD000018000020FCC8000861
:1038400070B505460C4604B970BD054850F8250012
:10385000261A31462846FFF727FF00BFF4E700008D
:103860001000002070B504460E4631462046FFF792
:1038700073FF0546681C08B9002070BD024850F867
:1038800024002844F9E700001000002070B503462A
:103890000C4603E014F8015B03F8015B151EA2F16E
:1038A0000102F7D170BD30B5034601E003F8011BFA
:1038B000141EA2F10102F9D130BD00002DE9F04142
:1038C00004460F46164631462046FFF745FF05469B
:1038D000681C10B90020BDE8F081084951F8241097
:1038E000481932463946FFF7D1FF39462046FFF7DF
:1038F000A7FF024850F824002844ECE710000020FD
:1039000070B505460C4621462846FFF7EFFB0646F4
:10391000601CC1B22846FFF7E9FB304470BD70B5AA
:1039200004460D46E06918B930206062A06203E0E9
:10393000A06A08B9606AA062D4E90901401AE0628D
:10394000606AA062206820B1E16A206808F034F95A
:1039500070BD0120FCE72DE9FF4F81B005460E4602
:1039600090460E9C41463046049A06F0E2F807461F
:10397000D8F800003168401A009004980068316857
:10398000A0EB010AD8F804007168A0EB01090498C3
:1039900040687168A0EB010B00982860C5F804A08E
:1039A000C5F80890C5F80CB00BFA04F0C00F4042FF
:1039B00000EB67000BFA04F1C90F494248400BFACB
:1039C00004F1084490FBF7F02861CAF10000A04020
:1039D000C00F404200EB6700CAF10001A140C90FCF
:1039E00049424840CAF10001A140084490FBF7F168
:1039F0006961C9F10000A040C00F404200EB6701BF
:103A0000C9F10000A040C00F40424140C9F1000090
:103A1000A040084490FBF7F1A9610098A040C00FB6
:103A2000404200EB67010098A040C00F4042414077
:103A30000098A040084490FBF7F1E96130682862E3
:103A400070686862AC6205B0BDE8F08F2DE9F04F98
:103A500085B006460F469046994656F828003968C4
:103A6000484306F1080151F828107A6801FB020466
:103A7000C8F1010056F8200039684843C8F1010236
:103A800006F1080151F822107A6801FB0205002DA9
:103A900001DA64426D42484605F000FC824600941B
:103AA000002C01DB009901E000994942084605F02D
:103AB000F5FB50441D38C0F1000A484605F0EEFB06
:103AC00083460194002C01DB019901E001994942F0
:103AD000084605F0E3FB58441D38002801DD0120AD
:103AE00000E0002040420AEA000ACAF10000049007
:103AF00001210498814048100390039821180498EC
:103B000041FA00F403982918049841FA00F5201EA0
:103B100001DB014600E04142A94204DB4FF0FF30E7
:103B200005B0BDE8F08FC9F100004443E00F40420A
:103B300000EB6500E10F49424840204490FBF5F05E
:103B400002900298002801DB014600E0414249450D
:103B500002DB4FF0FF30E3E70E9902980860002087
:103B6000DEE770B50C6854434D6805FB034691F8D9
:103B70002840641E0125A540741991F828502C4155
:103B80000D6A2C4404608C685443CD6805FB0346E1
:103B900091F82840641E0125A540741991F8285019
:103BA0002C414D6A2C44446070BD70B50D6A551BA4
:103BB0000C696C434E6A9E1B4D6905FB064404600C
:103BC0000C6A141B8D6965434E6A9E1BCC6904FB0D
:103BD0000654446070BD2DE9FE4F04460F469046E2
:103BE0009946206E381A0290606EA8EB0000019092
:103BF0004FF0000A00200546834622E000261DE023
:103C000005EB850004EBC00000EBC600416801989D
:103C10000844009005EB850004EBC00050F8361016
:103C200002980B184846DDE90C1205F065FB00FA16
:103C30000BF040EA0A0A761C0BF1010B052EDFDBC4
:103C40006D1C052DDADB5046BDE8FE8F2DE9FF4FD8
:103C5000DBB00D465D98801EE96A401A17905E98A9
:103C6000801E296B401A16902868179948436A6885
:103C7000169902FB0100A96808441590E868179995
:103C800048432A69169902FB0101686908441490A7
:103C9000A86917994843EA69169902FB0101286A45
:103CA0000844139028681090E8680F90A8690E9057
:103CB00068680D9028690C90E8690B9000242FE04B
:103CC0001598129014981190DDF84CA0002718E078
:103CD00004EB84011DAA02EBC10101EBC700CDF882
:103CE00000A02946DDE9113202F050FE1099129829
:103CF000084412900F991198084411900E9882442C
:103D00007F1C052FE4DB0D991598084415900C993C
:103D10001498084414900B99139808441390641C49
:103D2000052CCDDBDDF8D480DDF8D8906B996A984E
:103D3000CDE900014A4641461DA8699BFFF74BFFAC
:103D40001A901922FE491A9802F0C1FD0646002E6B
:103D50007EDDE96A5D98401A1790296B5E98401ADB
:103D600016902868179948436A68169902FB010063
:103D7000A968084480001290E868179948432A69A6
:103D8000169902FB01016869084480001190A86936
:103D900017994843EA69169902FB0101286A084409
:103DA0004FEA800A01247EE00120C0EB4400089025
:103DB0000D99109801441298401A12900C990F987E
:103DC00001441198401A11900B990E980844AAEBDF
:103DD000000A00275FE0CDF800A029461BA8DDE916
:103DE000113202F0D3FD6B996A98CDE900011DA84C
:103DF000699BDDE91B12FFF7EEFE1990721CD0499A
:103E0000199802F064FD18901898B04206DA1998D3
:103E10001A90189EDDF86C80DDF8709008984000CC
:103E2000B8421ADD0898874201DB012000E000203B
:103E3000834655F82B1012980844129005F10C0097
:103E400050F82B1011980844119005F1180000E06B
:103E50002FE050F82B0082441AE0089800EB400055
:103E6000B84201DC012000E00020834655F82B1009
:103E70001298401A129005F10C0050F82B1011986E
:103E8000401A119005F1180050F82B00AAEB000A17
:103E900006B904E07F1C08988000B8429BDC00BF94
:103EA00006B905E0641C6898B4EB800FFFF67CAFA0
:103EB00000BF062E0CDD1DA8016E5B9801601DA8D9
:103EC000416E5B9841604FF0FF305FB0BDE8F08F0E
:103ED0001DA8006EA8EB00000A901DA8406EA9EB7B
:103EE00000000990102200214FA8FDF7A3FF202217
:103EF000002153A8FDF79EFF0024C4E0914850F82C
:103F000034001A9908408F4901EBC401496888427E
:103F100070D18D4800EB4400407800EB80001DA973
:103F200001EBC000884911F8141050F831100A98BC
:103F30000844801008900898002803DB6A990898C4
:103F4000884200DB9EE0804800EB4400407800EBB4
:103F500080001DA901EBC0007B4911F8141000EB93
:103F6000C1004168099808444FEAA00BBBF1000F5B
:103F700002DB6B98834500DB84E0734800EB440070
:103F80004078C0F1040000EB80001DA901EBC000E7
:103F90006D4911F81410C1F1040150F831100A985C
:103FA0000844801007900798002803DB6A99079857
:103FB000884200DB66E0644800EB44004078C0F1D2
:103FC000040000EB80001DA901EBC0005E4911F860
:103FD0001410C1F1040100EBC100416809980844C4
:103FE000801006900698002803DB6B99069888429B
:103FF00001DB47E045E01BAB04F00100DDE90621F1
:10400000CDE900B1CDE903030292089B69A807C876
:1040100002F066F9A0BB1B9BA3EB08011C9BA3EB62
:10402000090204F001032BB1032001EB410102EB73
:10403000420200E0012063100DF59E7C5CF8233005
:1040400003444FEA640C0DF59E7E4EF82C3063104D
:104050000DF5A67C5CF833300B444FEA640C0DF58B
:10406000A67E4EF83C306310F4460CEBC3035B684D
:1040700013444FEA640C0EEBCC0CCCF8043000BFB8
:1040800000BF00BF641C082CFFF638AF0024E7E037
:1040900062004FAB53F82200012202EB440253F8B6
:1040A000221000287DD000297BD0431A814202DDF6
:1040B0004FF0010C01E04FF0000CCCF1000C03EAD2
:1040C0000C03C21A63000DF5A67C5CF833304B4339
:1040D0004FF0010C0CEB440C0DF5A67B5BF83CC0DB
:1040E00000FB0C335343DB0FC3F1000C00FB01F367
:1040F0000CEB63034FEA440C5BF83CC00CFB01FC87
:104100004FF0010B0BEB440B0DF5A67E5EF83BB0B8
:1041100000FB0BCC0CFB02FC4FEADC7CCCF1000C6E
:1041200083EA0C034FEA440CF3465BF83CC00CFBFB
:1041300001FC4FF0010B0BEB440B5EF83BB005E0CC
:104140003FD6F80160CB0008A0CB000800FB0BCCE9
:1041500002FB0C3C00FB01F39CFBF3F34FEA440C25
:10416000F3464BF83C30DC460CEB04135B684B43E6
:104170004FF0010C0CEB440C0BEBCC0CDCF804C046
:1041800000FB0C335343DB0FC3F1000C00FB01F3C6
:104190000CEB63030BEB041CDCF804C00CFB01FC10
:1041A00000E035E04FF0010B0BEB440B0EEBCB0BBB
:1041B000DBF804B000FB0BCC0CFB02FC4FEADC7C10
:1041C000CCF1000C83EA0C03F3460BEB041CDCF887
:1041D00004C00CFB01FC4FF0010B0BEB440B0EEB8E
:1041E000CB0BDBF804B000FB0BCC02FB0C3C00FB60
:1041F00001F39CFBF3F3F3460BEB041CCCF8043007
:1042000053004FEA440C0DF59E7B4BF82C3026E012
:10421000620053AB53F83220012303EB44030DF546
:10422000A67C5CF833301A4463004CF8332053AB5F
:1042300003EB04125268012303EB44030CEBC303AA
:104240005B681A440CEB04135A6062004FAB53F8DE
:1042500022200A4463000DF59E7C4CF82320641C48
:10426000022CFFF615AF579953980844539053A862
:10427000549940690844549051994F9808444F907C
:104280004F98D8B35398C00F40424F9900EB61004C
:104290005399C90F49424840539908444F9990FB9C
:1042A000F1F00A905498C00F40424F9900EB610022
:1042B0005499C90F49424840549908444F9990FB7A
:1042C000F1F009906B996A98CDE90001099809EB22
:1042D00000020A9808EB00011DA8699BFFF77BFC10
:1042E0001990721C0949199802F0F1FA189018985F
:1042F000B04203DC0A988044099881445B98C0F876
:1043000000805B98C0F804900020DEE53FD6F801FD
:104310002DE9F74F86B00D46904600200590002D00
:1043200075DDB8F1000FFBDD05FB08F0FDF771FD51
:1043300005900420049002E00498401C0490049826
:10434000082807DA0121049801FA00F0E91DB0EB12
:10435000E10FF1DB4FF0040901E009F10109B9F1C6
:10436000080F07DA012000FA09F008F10701B0EBA5
:10437000E10FF2DB0121049801FA00FA012000FAB2
:1043800009FBA800FDF745FD074600240BE0069851
:10439000005D0190A9F10101019800FA01F10844C2
:1043A00047F82400641CAC42F1DB01261FE0A8F1B1
:1043B0000100801BA8F10101B14201DA012100E0F6
:1043C00000214942084030446843029000240BE039
:1043D000029801190698405C019057F82410019842
:1043E000084447F82400641CAC42F1DB761CB6EBB1
:1043F0006B0FDCDB0026C2E0D7F800C0049B5B1E1D
:104400000CFA03FC3B680CEB0300012414E0BDE054
:104410006B1E1B1BA5F1010CA44502DA4FF0010C29
:1044200001E04FF0000CCCF1000C03EA0C03191969
:1044300057F821301844641CB4EB6A0FE8DB002401
:104440004DE006FB054C069B13F80C300193049BD2
:1044500003EB090C019BDB1C03FA0CF3834201D232
:10446000012300E000235B4206FB054EDDF814C08B
:104470000CF80E30631CAB4230DAA4EB6A035B42EB
:10448000A4EB6A0CBCF1000F02DD4FF0010C01E05F
:104490004FF0000CCCF1000C03EA0C035A426B1EE7
:1044A00004EB6A0CA3EB0C03A5F1010C04EB6A0E00
:1044B000F44502DA4FF0010C01E04FF0000CCCF1B2
:1044C000000C03EA0C0304EB6A0C03EB0C0157F835
:1044D000213057F822C0A3EB0C031844641CAC42F3
:1044E000AFDB731C434549DAA6EB6B035B42A6EBDB
:1044F0006B0CBCF1000F02DD4FF0010C01E04FF03E
:10450000000CCCF1000C03EA0C035B426B430393F9
:10451000A8F1010306EB6B0CA3EB0C03A8F1010C53
:1045200006EB6B0EF44502DA4FF0010C01E04FF0A0
:10453000000CCCF1000C03EA0C0306EB6B0C63449B
:104540006B430293002417E057F824C0039B03EB4E
:10455000040E069B13F80E30ACEB030347F824302F
:1045600057F824C0029B03EB040E069B13F80E3091
:10457000634447F82430641CAC42E5DB761C4645B6
:10458000FFF63AAF3846FDF73DFC00BF059809B08D
:10459000BDE8F08F70B503460C4619462246886880
:1045A0009568A84201DD012000E000208D68966832
:1045B000B54201DA012500E00025401BCD68D66830
:1045C000B54201DD012500E0002505EB4000CD6886
:1045D000D668B54201DA012500E00025401B70BD18
:1045E00070B50446002515E005EB4501206810F87C
:1045F000210005EB4502216811F82210491E0840F0
:1046000038B905EB4502216801EB82014868FDF7E6
:10461000F9FB6D1C6068A842E6DC2068FDF7F2FB40
:1046200070BD70B504460D46D4E9010188420CDB2B
:104630000121A06801EB4000A060A26802EB4202E9
:1046400011012068FDF700FC20606268511C616068
:1046500002EB4201226802EB011030222946FDF7ED
:10466000DFFB70BD70B50446002507E005EB450291
:10467000216801EB0210FFF7B3FF6D1C6068A842D0
:10468000F4DC2068FDF7BEFB204600F087FA70BD21
:104690002DE9F74FAAB02A98D0F800B02A984068C0
:1046A000269026998800FDF7B4FB249001212698D6
:1046B000FDF796FB259000202390229062E222993C
:1046C0002598405C002875D1229800EB40000BEB48
:1046D0000010C07A002844D0229901EB41010BEB75
:1046E0000111C97A0D91229901EB41010BEB0111E6
:1046F000087B002405E04FF0FF310EAA42F8241099
:10470000641C0D998C42F6DB229C26E02599095DFC
:1047100011BB04EB44010BEB0111CA7A0D998A42DB
:104720001AD104EB44010BEB0111097B814213D137
:1047300004EB44010BEB0111897A0EAA52F8211007
:10474000002909DA04EB44010BEB0111897A42F8E4
:104750002140012225990A55641C26998C42D5DBFB
:1047600003E022980E9001200D9000200C900B90F9
:1047700000243BE00EA850F82400002835DB0EA8EA
:1047800050F8240000EB40000BEB001700200890CD
:1047900027E03A68089901EB410102EB810600200D
:1047A000317804290DD0052905D0082907D0092919
:1047B00009D101E0E3E100BF01210B910DE0401CB4
:1047C00000BF401C00BF31784A1E114021B9B168BA
:1047D00081400C9A11440C9100BF00BF0898401C06
:1047E0000890796808988142D3DC641C0D98844253
:1047F000C0DB0C99481CFDF70CFB81460025681EA8
:104800000A9027981F902998209028982190681E38
:104810001E900020099007900DF11C080024ECE088
:10482000002240212B98FDF752FEC8F80000D8F86E
:10483000000085600EA850F82400002824DA01202A
:10484000D8F800100880641C00E0641C0D988442B5
:1048500004DA0EA850F824000028F6DB0D988442F4
:1048600000DBD1E0002228466D1C09F80020D8F8B2
:1048700000008560D8F8000000F1200840212B9846
:10488000FDF725FEC8F800000EA850F8240000EB44
:1048900040000BEB0017D7E90412D8F8000007F02E
:1048A000F7F8D7E90812D8F8000007F0F1F8D7E9CF
:1048B0000A12D8F8000007F0EBF8D7E90612D8F88A
:1048C000000007F0E5F80020089089E039680898B2
:1048D00000EB400001EB8006307809287BD2DFE84E
:1048E00000F07A05167A6D7A7A7978000C98411B77
:1048F000B068814208D309EB0500D6E90112FDF743
:104900008FFAB068054401E00120099064E0706806
:104910000690D6F808A00B98D8B300BF52462521C0
:104920000698FBF7E2FC0590059800B932E0DDE956
:104930000501401A04900C98411B0498401C8142C8
:1049400000D227E009EB0500049A0699FDF768FA02
:10495000049805440498401C50450BD205984078B3
:10496000252807D103900498401C04900598401C0A
:10497000059001E01D20039029466D1C039809F85D
:1049800001000498401CAAEB000A0598401C069000
:10499000C4E700E001E000200590059818B90C98E4
:1049A000401B504502D20120099006E0524609EB17
:1049B00005000699FDF734FA55440DE009EB0502B0
:1049C000D6E9010107F026FF05900598054403E0AC
:1049D00001E001E000E000BF00BF0898401C089023
:1049E00079680898814203DD099800283FF46EAF8A
:1049F000641CD8F8000000F120080D98844203DA06
:104A0000099800283FF40CAF00BF0998002879D11D
:104A1000002228466D1C09F800200C98401CA84272
:104A200004D929464846FDF70FFA81460D9801281A
:104A300002D1DDF81CA08EE0002240212B98FDF76A
:104A400046FD8246FDF74CFFCAF824000798DAF8C5
:104A5000241088602C98406806906FF00100059043
:104A60002C98806804906FF00100039057E007983D
:104A70000090012001900198009AD2691318009AC1
:104A80001946D36100BF29B90198002802DC0098BB
:104A9000FDF7FCFE00BF07980088012802D1AAF8A4
:104AA000000023E000241DE00799896951F83400D3
:104AB0000699814201DB411E06910599814201DC84
:104AC000411C05910799896901EBC4014868049963
:104AD000814201DB411E04910399814201DC411CAA
:104AE0000391641C07984069A042DDD8079880684C
:104AF00048440799C8600798006A20B10798006A7F
:104B0000806801E033E028460290079881680298A7
:104B1000401A401E079988600798006A0790079816
:104B20000028A4D10598B0F1FF3F13DB5046049A4A
:104B3000069906F0ADFF5046039A069906F0A8FFC5
:104B40005046039A059906F0A3FF5046DDE904217B
:104B500006F09EFF00BFCAF80C90CAF80450681E09
:104B6000CAF8080051462B98FDF781FC06E007992A
:104B70002B98FDF718FD4846FDF744F900BF229831
:104B8000401C2290269922988842FFF698AD2598DD
:104B9000FDF738F923982DB0BDE8F08F00210160B2
:104BA00081604160704700002DE9FF4F87B00546E6
:104BB000002028606860E87202900898092801DDEA
:104BC000012100E0002108981A2801DD012000E001
:104BD000002001EB000903A8DDE9091204F068FFD9
:104BE000F4E1042103A804F069FF074607B9F3E1E3
:104BF0006968029881420CDB0121029801EB4000B8
:104C00000290029A02EB420291002868FDF71CF91B
:104C100028606968481C686001EB4100296801EB65
:104C20008004FF2020700A2F74D2DFE807F073059C
:104C300096FDF5F473F3F2F1EE4810F8291003A88D
:104C400004F03CFF8246BAF1000F04DA4FF0FF3067
:104C50000BB0BDE8F08F03209AFBF0F00190032029
:104C60009AFBF0F100FB11AB03A804F019FF014619
:104C7000019800EB80004000CBF34002072303FBC8
:104C800002000BF00102042303FB0200814201DA5F
:104C9000581FDDE727705046FDF7BBF806466060F9
:104CA000C4F808A023E00A2103A804F007FF804607
:104CB000B8F57A7F02D34FF0FF30C9E76420B8FB24
:104CC000F0F0303006F8010B6420B8FBF0F100FB87
:104CD00011880A20B8FBF0F0303006F8010B0A20EA
:104CE000B8FBF0F100FB1180303006F8010B0198A1
:104CF000411E01910028D6DCBBF1010F1ADD07210E
:104D000003A804F0DBFE8046B8F1640F03D34FF034
:104D1000FF309DE755E10A20B8FBF0F0303006F88F
:104D2000010B0A20B8FBF0F100FB1180303006F8CF
:104D3000010B11E0BBF1000F0ED0042103A804F019
:104D4000BDFE8046B8F10A0F02D34FF0FF307FE777
:104D500008F1300006F8010B36E1A64800EB8900A7
:104D6000417803A804F0AAFE8246BAF1000F02DAE5
:104D70004FF0FF306CE74FEA6A0B0AF00100019038
:104D800003A804F08DFE01460BEB4B0000EBCB02B9
:104D90000623019803FB0020814201DAD81F57E760
:104DA00027705046FDF735F806466060C4F808A045
:104DB0001CE00B2103A804F081FE8046B8F5FD6FCE
:104DC00002D94FF0FF3043E72D20B8FBF0F08A49BD
:104DD000085C06F8010B2D20B8FBF0F100FB1180F8
:104DE0008549085C06F8010BAAF1020ABBF1000034
:104DF000ABF1010BDDDC0198A8B1062103A804F09A
:104E00005DFE8046B8F12D0F08D34FF0FF301FE74D
:104E1000D5E08BE04BE048E01EE005E0764810F876
:104E2000080006F8010BCFE02770102103A804F05A
:104E300045FE0646002E02DA4FF0FF3008E7C6F3C3
:104E400003302071A872C6F30320401C6071E87221
:104E5000F1B2A1712973B7E0664800EB890081784F
:104E600003A804F02BFE0646002E02DA4FF0FF30B6
:104E7000EEE603A804F014FEB0EBC60F02DA4FF022
:104E8000FF30E5E627703046FCF7C3FF80466060E0
:104E9000A66005E0082103A804F010FE08F8010B45
:104EA000301EA6F10106F5DC8EE027708CE00821AB
:104EB00003A804F003FE0646002E02DA4FF0FF308E
:104EC000C6E606F0800008B9B0462BE006F04000C8
:104ED00070B906F47C58082103A804F0EFFD0646DB
:104EE000002E02DA4FF0FF30B2E648EA060819E079
:104EF00006F0200098B906F4F818102103A804F071
:104F0000DDFD0646002E02DA4FF0FF30A0E648EA4B
:104F100006083A48804505D34FF0FF3098E64FF039
:104F2000FF3095E62770C4F804804DE0314800EB6F
:104F30008900C17803A804F0C1FD8246BAF1000FD0
:104F400002DA4FF0FF3083E603A804F0A9FD0AEB74
:104F50008A0101EBCA01884202DA4FF0FF3077E69E
:104F600027704FEA4A00FCF754FF064660604FEA9C
:104F70004A01A1601DE00D2103A804F09FFD8046B9
:104F8000C020B8FBF0F100FB1180C021B8FBF1F1AB
:104F900040EA012048F2401100EB0108B8F5204F2B
:104FA00001D308F580484FEA182006F8010B06F8EF
:104FB000018BBAF10000AAF1010ADCDC04E02770E1
:104FC00002E04FF0FF3043E600BF00BF03A804F04B
:104FD00067FD0428BFF605AE00BF002068736A684D
:104FE00002EB420291002868FCF72EFF28600020A7
:104FF0002EE60000B0CB000812CA000840420F00A5
:105000002DE9FF4F9BB08146299F09F11003DDE98F
:105010002B212D98CDE90132CDE90310289800907D
:1050200039460DA8DDE91D2305F0EEF9112000EB4E
:105030008700069006991F314911069A514388004E
:10504000FCF7E7FE0C90DDE92B122D98CDE900125C
:1050500002900DA82A9B069A0C9905F004FF0121E5
:105060002A9881EAE0000890781E504901EB8001FF
:1050700008980D5C781E4E49085C4E49014408981A
:10508000085C0790384600F097F8064696FBF5F066
:10509000099096FBF5F005FB1060281A0A90A8000D
:1050A000FCF7B7FE0B903046FCF7B3FE80460B983A
:1050B000C0F80080012410E0601E0B9951F8201008
:1050C000099801440A98844201DD012000E0002093
:1050D00001440B9840F82410641CAC42ECDB139A9A
:1050E0000C990698CDE90012029007990998421A86
:1050F0002946DDE90A3005F00BF80DA805F049F95D
:105100000B98FCF77FFE0C98FCF77CFE4FF0000A32
:10511000002600200590002428E00A98844201DB44
:10512000012100E00021099801EB000B0021079804
:10513000CDE9000108EB06025B4602911C9805F0E0
:1051400091FF002803DA4FF0FF30059010E0079838
:10515000ABEB0000049008EB060108EB0A00049A90
:10516000FBF795F85E4404988244641CAC42D4DB9F
:1051700000BF0598002811DB534642463946484691
:10518000FFF712FD05900598002802DA4846FFF760
:1051900027FA89F80870089889F809004046FCF752
:1051A00031FE05981FB0BDE8F08F0000AECA0008C0
:1051B00086CA00083FCA000810B50146012901D17E
:1051C0001A2010BD0720B1FBF0F0821C080101F18C
:1051D0000803584302EB820402EB82039B1E04FB8C
:1051E0001300072901D2012300E00023242404FB3B
:1051F00003005330C008E4E72DE9F04780460F462E
:10520000914607F11F004611B9F1070F6FD2DFE891
:1052100009F004171F34556F9C004FF0550A002504
:105220000BE0B2000AF0FF0105FB06F308EB830078
:10523000FCF700FE8AF0FF0A6D1CBD42F1DBE0E0E6
:1052400007FB06F0820055214046FCF7F3FDD8E04D
:105250004FF0FF0A00250DE0B2000AF0FF0105FB48
:1052600006F308EB8300FCF7E5FD4FEA0A2040EA6D
:105270001A4A6D1CBD42EFDBC3E00020002405E0AC
:1052800004EB440301229A401043641C0B2CF7DB0F
:10529000002510E00146002407E005FB064248F81F
:1052A00022108A0842EA4101641CB442F5DB42083C
:1052B00042EA80006D1CBD42ECDBA2E04FF0070A21
:1052C000002511E0B2000AF001035B4283F0CC0339
:1052D000D9B205FB06F308EB8300FCF7ABFD4FEA00
:1052E0005A0040EA4A1A6D1CBD42EBDB89E05AE0E5
:1052F000002527E0002000240DE004FB05F1062234
:1053000091FBF2F302FB131109B9012100E0002126
:10531000A1400843641C062CEFDB062403E000FADE
:1053200004F108436400202CF9DB002407E005FBAE
:10533000064148F82100810841EA0010641CB4428B
:10534000F5DB6D1CBD42D5DB5BE0002528E00020CD
:1053500000240EE004FB05F1032291FBF2F302FBB3
:10536000131104FB0511491C01F00101A140084380
:10537000641C062CEEDB062403E000FA04F108436B
:105380006400202CF9DB002407E005FB064148F807
:105390002100810841EA0010641CB442F5DB6D1C59
:1053A000BD42D4DB2DE0002528E0002000240EE0E3
:1053B00004FB05F1032291FBF2F302FB13112144DC
:1053C0002944491C01F00101A1400843641C062C3A
:1053D000EEDB062403E000FA04F108436400202C0D
:1053E000F9DB002407E005FB064148F821008108AD
:1053F00041EA0010641CB442F5DB6D1CBD42D4DBF5
:1054000000BF00BFBDE8F087F0B503460C46194663
:105410002246D068CD68A84201DD012000E00020CE
:10542000D568CE68B54201DA012500E00025401BB1
:1054300080004D685668B54201DD012500E0002579
:105440004E685768BE4201DA012600E00026AD1B17
:1054500000EB45000D681668B54201DD012500E04E
:10546000002528440D681668B54201DA012500E0E0
:105470000025401BF0BD00002DE9FF4F8BB0164604
:10548000D6F8100B0A9040F6143050F806B040F6EB
:105490001C3080590990D6F8208B4FEA8B00FCF71E
:1054A000B8FC08904FEA6B01C800FCF7B2FC07900B
:1054B00000205B4600900A9ADDE9070100F06EF8D3
:1054C0000446354B142241460998FAF792FE4FEAFA
:1054D0008800FCF79EFC06904FEA6801C800FCF7C4
:1054E00098FC0590012043460090099ADDE90501EA
:1054F00000F054F80746032C3CDB032F3ADB4FF057
:10550000000A002505E0079800EBC50040688244CA
:105510006D1CA542F7DB002505E0059800EBC500F2
:10552000406882446D1CBD42F7DB4FEA4A0A4FEAED
:105530000A10FCF76EFC8146391BA74201DA0122F2
:1055400000E000225242114021440801FCF761FCB6
:10555000039005982346CDE900074946079A03982A
:1055600000F08CFB04900B99039808600C98C0F82D
:10557000009001E0002004900598FCF743FC069899
:10558000FCF740FC0798FCF73DFC0898FCF73AFC58
:1055900004980FB0BDE8F08F836800082DE9FF4F35
:1055A00083B016469946109C01214846FCF718FC2A
:1055B0008246049F002002908046F2E01AF808001C
:1055C000002878D1012508EB880006EB80003860C0
:1055D00008EB880006EB80008068019008F101026A
:1055E000ABE01AF8020000287ED1A5F1010C57F8B3
:1055F0002C0002EB820C06EB8C01D0F808C00CF1F9
:10560000070C4FEAAC03C4F1010B50F82BB0C4F106
:10561000010E51F82EE0ABEB0E0CBCF1000F01DBDC
:10562000E34601E0CCF1000B9B4500DD88E050F83B
:1056300024B051F824E0ABEB0E0CBCF1000F01DB01
:10564000E34601E0CCF1000B9B4500DD74E050F82F
:1056500024B0D0F808E0F34451F824E0ABEB0E0B93
:10566000D1F808E0ABEB0E0CBCF1000F01DBE34618
:1056700001E0CCF1000B9B4500DD5DE0D0F80CB003
:10568000BBF1000F1DDDD1F80CB0BBF1000F18DD30
:1056900050F824B0D0F80CE0ABEB0E0B51F824E03E
:1056A000ABEB0E0BD1F80CE00BEB0E0CBCF1000FCA
:1056B00002DBE34602E071E0CCF1000B9B4500DD2C
:1056C0003AE0D0F810B0BBF1000F24DDD1F810B0F3
:1056D000BBF1000F1FDD50F824B0D0F808E0F34410
:1056E000D0F810E0F34400E025E051F824E0ABEB03
:1056F0000E0BD1F808E0ABEB0E0BD1F810E0ABEBE2
:105700000E0CBCF1000F01DBE34601E0CCF1000B15
:105710009B4500DD10E002EB820C06EB8C0BAC46E7
:105720006D1C47F82CB0D1F808B0DDF804C0DC449B
:10573000CDF804C000BF00BF521C4A45FFF651AF70
:1057400000BF032D00DA2AE0019805EB4000690054
:1057500090FBF1F0019005EB85010198B0EB810F12
:105760001BDCDDE9021040F83170DDE9021000EBCE
:10577000C1004560002209E057F82200801B142177
:1057800090FBF1F001210AF80010521CAA42F3DB51
:1057900007EB85070298401C029000BF00BF08F18C
:1057A0000108A9F1010040453FF708AF5046FCF75A
:1057B00029FB029807B0BDE8F08F00002DE9FC47F7
:1057C00004468946A66C002505E0002104F120006E
:1057D00040F825106D1C042DF7DB00273FE0B06872
:1057E00000EB07104368B06800EB071049460268F9
:1057F0006846FEF7DAF9606C4242206C4142684626
:1058000004F0B7F90199002901DB0A4600E04A4299
:105810000098002801DB034600E043429A4201DD84
:10582000012200E0002290465DF82800012101EBF2
:10583000E07040EA480504F1200050F82500401CC3
:1058400004F1200141F82500B06800EB07108560E5
:105850005DF82800B16801EB0711C8607F1CF06893
:10586000B842BCDC0E4B1022D6E90201FAF7C1FCAB
:10587000B068206101250EE0681E04F1100151F8A6
:105880002020103151F8200002EB001104F110002B
:1058900040F825106D1C042DEEDBBDE8FC870000F0
:1058A000954500082DE9F047044616461F46089D19
:1058B00000224BE056F822C0002342E0DCF80080D2
:1058C00058F82300D0F80C80B8F1000F18DD04EB75
:1058D0000119D0F80080C9F8008004EB0119D0F854
:1058E0000480C9F8048004EB011858F82580D0F82A
:1058F0000C90A8EB090804EB011949F82580491C14
:10590000D0F81080B8F1000F1ADD04EB0119D0F8BF
:105910000080C9F8008004EB0119D0F80480C9F8B0
:10592000048004EB011858F82580D0F810A0D0F8B6
:105930000890D144C84404EB011949F82580491C5A
:105940005B1CDCF804009842B8DC521CBA42B1DBA4
:105950000846BDE8F08700002DE9FC47044689466B
:10596000A66C002505E0002104F1200040F8251078
:105970006D1C042DF7DB00274CE0B06800EB07102E
:105980004368B06800EB071049460268684603F0B8
:105990009AFB002833DB606C4242206C414268462F
:1059A00004F0E7F80199002901DB0A4600E04A42C9
:1059B0000098002801DB034600E043429A4201DDE3
:1059C000012200E0002290465DF82800012101EB51
:1059D000E07040EA480504F1200050F82500401C22
:1059E00004F1200141F82500B06800EB0710856044
:1059F0005DF82800B16801EB0711C86009E00420D8
:105A0000B16801EB071188600098B16801EB0711DC
:105A1000C8607F1CF068B842AFDC0E4B1022D6E99C
:105A20000201FAF7E6FBB068206101250EE0681E6E
:105A300004F1100151F82020103151F8200002EB40
:105A4000001104F1100040F825106D1C042DEEDB50
:105A5000BDE8FC87954500082DE9F74F8CB003465B
:105A600000200B900A90002158E003F1200050F82C
:105A70002100002848DD03F1100A5AF821A0CDF8D2
:105A800004A003F1200A5AF821004FF000084FEA61
:105A9000A00908E0DDF804A00AEB091ADAF80CA066
:105AA000D04409F10109A0EBA00ACA45F2DC4FEA93
:105AB000A00AA0EB4A004FEAD87ACAF1000A0AEB22
:105AC000600A4FEAD87BCBF1000B8AEA0B0AC2448A
:105AD0009AFBF0FACDF800A04FEA610A0DF1280B0D
